:020000040800F2
:100000000080002075190008490200084D02000810
:1000100051020008550200085902000800000000C3
:100020000000000000000000000000005D02000869
:10003000610200080000000065020008C119000804
:10004000C1190008C1190008C1190008C119000828
:10005000C1190008C1190008C1190008C119000818
:10006000C1190008C1190008C1190008C119000808
:10007000C1190008C1190008C1190008C1190008F8
:10008000C1190008C1190008C1190008C1190008E8
:10009000C1190008C1190008C1190008C1190008D8
:1000A000C1190008C1190008C1190008C1190008C8
:1000B000C1190008C1190008C1190008C1190008B8
:1000C000C1190008C1190008C11900086902000817
:1000D000C1190008C1190008C1190008C119000898
:1000E000C1190008C1190008C1190008C119000888
:1000F000C1190008C119000800000000000000003C
:100100000000000000000000C1190008C11900082B
:100110000000000000000000C1190008C11900081B
:10012000C1190008C1190008C1190008C119000847
:10013000C1190008C1190008C1190008C119000837
:10014000C1190008000000000000000000000000CD
:10015000000000000000000000000000000000009F
:100160000000000000000000C1190008C1190008CB
:10017000C119000800000000C119000800000000BB
:04018000C119000899
:1001840010B5054C237833B9044810B10448AFF3D3
:1001940000800121217010BDA80000200000000093
:1001A400F419000808B5064B1BB106480649AFF31D
:1001B40000800648016811B1054A02B1904708BDA4
:1001C40000000000F4190008AC000020A400002086
:1001D40000000000154B002B08BF134B9D46A3F5F0
:1001E400803A00218B460F461348144A121A01F034
:1001F40097FB0F4B002B00D098470E4B002B00D0E1
:1002040098470020002104460D4600200C49002296
:10021400002301F029FB01F05DFB2046294601F093
:1002240089FB01F02BFB00BF000008000000000068
:100234000000000000000000A8000020C80000200A
:10024400AD180008704700BFFEE700BFFEE700BF1F
:10025400FEE700BFFEE700BF704700BF704700BF66
:10026400704700BF4FF4405010B5C4F20100602144
:1002740000F09EFE00B910BD4FF44050C4F20100DE
:1002840000F030FE1B4C20804FF44050C4F20100BB
:100294006021002200F06AFE21884FF48840C4F2F5
:1002A4000000090A00F0D8FF4FF48840C4F20000AF
:1002B400402101F0C3F80028F6D022784FF488409A
:1002C400C4F2000042F4807100F0C6FF4FF488408D
:1002D400C4F20000402101F0B1F80028F6D04FF438
:1002E4004050C4F2010060210122BDE8104000F03A
:1002F4003DBE00BFC40000204FF46D42CEF20002A8
:100304004FF48053D2F88810C4F2020341F4700011
:1003140010B4C2F888001C6844F001021A605968DD
:100324004CF20C00CFF67F00084058601C6824F0A3
:10033400847222F480311960186820F480241C60CF
:100344005A6822F4FE015960D86A20F00F04DC6276
:100354001C6B4FF6CC424FF40050CFF6007283B0C2
:10036400C4F2020022401A63002112229960009113
:100374000191026058685860596841F480625A607B
:10038400586820F47C1159605A6842F4601058602F
:10039400196841F080721A6018684FF48052810124
:1003A400C4F20202F8D5536823F003015160506887
:1003B40040F002035360516801F00C000828FAD1A0
:1003C4004FF46D43CEF200034FF000629A6003B025
:1003D40010BC70474FF48053C4F202035A6802F011
:1003E4000C00082810D04FF49051C0F27A014FF459
:1003F4008052C4F2020212485368C3F30312835CAE
:1004040021FA03F1016170475A685868C2F38341C5
:100414008A1CC00306D44FF41063C0F23D0303FBEF
:1004240002F1E4E7D86A4FF4905300F00F01481C3E
:10043400C0F27A03B3FBF0F102FB01F1D7E700BF8E
:100444000400002070B5012188B04FF4003000F0A2
:1004540057FB01214FF4805000F060FB042105227A
:100464004FF0904001F078F905210A464FF0904092
:1004740001F072F9062105224FF0904001F06CF969
:10048400052207214FF0904001F066F90024402333
:100494000225032602A94FF0904002938DF80C50D8
:1004A4008DF80E408DF80D608DF80F4001F060F866
:1004B400302202A94FF0904002928DF80F4001F0D3
:1004C40057F8802302A94FF0904002938DF80F5003
:1004D40001F04EF84FF4FA424FF4405004A906924A
:1004E4004FF440734FF40072C4F20100ADF81030C1
:1004F400ADF81240ADF81460ADF81C40ADF816200C
:1005040000F016FC2321012301A825468DF80410D0
:100514008DF806408DF805408DF8073001F03EF95E
:1005240008B070BD70B5012188B04FF4003000F000
:1005340003FB022107224FF0904001F00DF907223E
:1005440003214FF0904001F007F900240223032215
:100554000C2669464FF090404FF48845C4F20005DC
:100564008DF804308DF8052000968DF806408DF83E
:10057400074000F0FDFF4FF42643C0F20E0302A92A
:1005840028464FF4805202930392049405940794EE
:10059400069600F05BFD2846012100F0CDFD08B071
:1005A40070BD00BF0EB4F0B586B00BAB044653F873
:1005B400045B29780193002791B15C292FD0252968
:1005C40028D16878642835D073280ED002352046A7
:1005D400402100F033FF0028F9D029780029ECD11C
:1005E40006B0BDE8F04003B07047019A1668317850
:1005F400131D01930029E9D0204600F02DFE20466A
:10060400402100F01BFF0028F9D016F8011F002933
:10061400F2D1DBE72046013500F01EFED7E76A7809
:100624006E2A0DD0722AD1D120460D2100F014FE7D
:100634000235CCE701998DF80870081D0190C5E7D3
:1006440020460A2100F008FE0235C0E7081A000817
:1006540000000020A4000020A8000020C800002002
:100664004FF48053C4F202031A6842F00100186088
:10067400596801F47F025A60186820F0847121F4EB
:1006840080321A60186820F4802119605A6822F4B4
:10069400FE005860D96A21F00F02DA62186B20F06C
:1006A400F02121F0730200201A639860704700BFA4
:1006B40041F20203C4F2020300221A701870704758
:1006C40082B04FF4805200230193C4F202021068F6
:1006D40083030CD5019A511C0191019B4FF4805363
:1006E400C4F202031868C0F3404002B07047019995
:1006F4004B1C01930198B0F5A06FE8D1EEE700BF61
:100704004FF48053C4F202031A6822F0F80141EA5C
:10071400C0001860704700BF0023C4F24223186071
:10072400704700BF4FF48053C4F202031A6A22F0E8
:10073400010119621A6A22F0040119621A6A10434B
:10074400186270474FF48053C4F202031A6A22F00D
:10075400180119621A6A1043186270474FF49063C3
:10076400C4F24223186070474FF48053C4F202036A
:100774005A6822F474125A605A681043014359604B
:10078400704700BF6023C4F242231860704700BF63
:100794004FF48053C4F20203DA6A22F00F010843D3
:1007A400D86270474C23C4F242231860704700BFDC
:1007B40041F20703C4F20203187070474FF48053E8
:1007C400C4F202035A6822F00301084358607047D8
:1007D4004FF48053C4F20203586800F00C007047D1
:1007E4004FF48053C4F202035A6822F0F001084324
:1007F400586070474FF48053C4F202035A6822F4DD
:10080400E0610843586070474FF48053C4F2020318
:100814005A6822F4605141EAC0005860704700BF32
:100824004FF48053C4F202035A6822F440415960E1
:100834005A681043586070474FF48053C4F202035F
:100844005A6822F0784159605A68104358607047DA
:100854004FF48053C4F202031A6B22F0400119636F
:100864001A6B104318637047030F4FF48053C4F29C
:1008740002034FF480511A6BC4F202010CBF22F040
:10088400100222F020021A630B6B184308637047AE
:10089400030F022B1DD0032B12D0012B07D04FF4D2
:1008A4008051C4F202010A6B1043086370474FF48D
:1008B4008051C4F202010A6B22F003030B63EEE7DA
:1008C4004FF48051C4F202010A6B22F440230B63FB
:1008D400E5E74FF48051C4F202010A6B22F440337D
:1008E4000B63DCE7D823C4F242231860704700BFCF
:1008F4004FF48053C4F2020370B45A6802F00C013E
:10090400042902D0082900F0B5804FF49051C0F2B8
:100914007A0101604FF48053C4F202036D4A5D68AA
:10092400C5F30314165D21FA06F444605D68C5F34B
:100934000226955D24FA05F585605E68C6F3C22635
:10094400965D24FA06F4C4605E68C6F3813696198F
:10095400367CB4FBF6F606615E68C6F3C36692198C
:10096400127DB1FBF2F242611B6B5A064FF48053C5
:1009740054BF48F212024FF40042C4F202038261EF
:100984001B6BDA0658BF4FF490534FF48052C4F2F5
:1009940002025ABFC0F27A03C361C161136B9A06A3
:1009A40058BF4FF490524FF4805358BFC0F27A02AC
:1009B400C4F2020354BF026201621A6B92072AD185
:1009C40044624FF48053C4F202031A6B12F4403FA2
:1009D40036D185624FF48053C4F202031A6B12F4C9
:1009E400402F45D01A6B02F44022B2F5802F62D01A
:1009F400196B01F44022B2F5002F66D01B6B03F48F
:100A04004021B1F5402F04D14FF49052C0F27A0244
:100A1400C26270BC70471A6B02F00302012A3AD01A
:100A24001A6B02F00302022A47D01B6B03F0030285
:100A3400032AC6D14FF49053C0F27A034362C0E74D
:100A44001A6B02F44032B2F5803F22D01A6B02F4E2
:100A54004032B2F5003F34D01B6B03F44032B2F5A0
:100A6400403FB7D14FF49053C0F27A038362B1E7A9
:100A7400C562CEE75D685C68C5F38346B21CE103DA
:100A84000BD44FF41066C0F23D0606FB02F1016080
:100A940040E781629EE7416293E7D96A4FF490533D
:100AA40001F00F056C1CC0F27A03B3FBF4F102FBF6
:100AB40001F101602EE7C162ABE74FF400424262EC
:100AC4007FE74FF40042826284E74FF40043C3623D
:100AD4009FE700BF180000204FF48053C4F20203C4
:100AE4001A6A10431862704740F23C43C4F242232E
:100AF400186070474FF48863C4F24223186070474B
:100B04004FF48053C4F202035A6919B922EA00006F
:100B14005861704710435861704700BF4FF48053C9
:100B2400C4F202039A6919B922EA00009861704775
:100B340010439861704700BF4FF48053C4F202031E
:100B4400DA6919B922EA0000D86170471043D86104
:100B5400704700BF4FF48053C4F202039A6A19B974
:100B640022EA00009862704710439862704700BF01
:100B74004FF48053C4F20203DA6819B922EA000080
:100B8400D86070471043D860704700BF4FF480535B
:100B9400C4F202031A6919B922EA00001861704705
:100BA40010431861704700BF41F20903C4F2020305
:100BB4001A7819B922EA00001870704710431870A7
:100BC400704700BF43090BD14FF48052C4F20202B4
:100BD400116800F01F0021FA00F303F001007047D0
:100BE4004FF48051C4F20201012B0CBF096A496A17
:100BF400EFE700BF4FF48053C4F202035A6A42F095
:100C040080705862704700BF4FF48053C4F20203EF
:100C1400996808420CBF00200120704741F20A0382
:100C2400C4F202031870704708B54FF44053C4F27D
:100C34000103984218D04FF46051C4F20001884275
:100C44001ED04FF47052C4F20002904200D008BD8E
:100C540001214FF40040FFF799FF4FF400400021B9
:100C6400BDE80840FFF792BF01214FF48050FFF721
:100C74007FFF4FF480500021BDE80840FFF778BFA4
:100C840001214FF48040FFF781FF4FF480400021A1
:100C9400BDE80840FFF77ABF00234FF4E062072164
:100CA400038043808280C380038143818381C38125
:100CB400018270470A88B1F808C00B8A2DE9F00355
:100CC400B1F80E90B1F806804F8905888E898C881A
:100CD400498849EA020242EA080242EA0C023A431B
:100CE40005F4415532432A4392B20280828822F4A9
:100CF40070621204120C224382800382038823F060
:100D0400040213041A0C0A430280818B21F4006349
:100D14001A04110C8183BDE8F003704700230222FA
:100D2400038043808380C38082608381704700BFD7
:100D3400838B8A68F0B5054623F47B600C4620F06B
:100D44000F010E04370C0223AF832B84A88B9A4225
:100D54008DB086B23AD0A2886846002A14BF022712
:100D64000127FFF7C5FDE3880099B3F5007F2FD075
:100D74007801B1FBF0F202EB8207A1687800B0FBC6
:100D8400F1F2571DB8B24CF6CD47CCF6CC47A7FBD1
:100D94000001CA085708B81E02F00102FD2894BFDA
:100DA40047EA022202222188B4F802C0A788A08957
:100DB400314341F4006141EA0C01394313430143D7
:100DC4009AB288B22A84A8830DB0F0BDE388EAE71A
:100DD400090A01EB8102A7685000B0FBF7F14A1D34
:100DE40090B2D0E7038829B923F040010A04130C18
:100DF4000380704799B241F040020280704700BFFF
:100E0400838829B923F010010A04130C83807047E6
:100E140099B241F010028280704700BF838B29B9D8
:100E240023F480610A04130C8383704799B241F45C
:100E340080628283704700BF838823F47062130446
:100E44001A0C114381807047838823F48052130461
:100E54001A0C828083889AB211438180704700BF44
:100E6400B1F5804F038805D023F480410A04130CA4
:100E74000380704799B241F480420280704700BFFA
:100E84004FF6FF639942018804D08AB242F480731A
:100E94000380704721F480721304190C0180704799
:100EA400838829B923F004010A04130C8380704752
:100EB40099B241F004028280704700BF838829B947
:100EC40023F008010A04130C8380704799B241F09F
:100ED40008028280704700BF0173704781817047A8
:100EE400007B7047808980B2704700BF038823F479
:100EF400006213041A0C028003889AB21143018021
:100F0400704700BF038829B923F400510A04130C65
:100F14000380704799B241F400520280704700BFC9
:100F2400038899B241F4805202807047012914BFAA
:100F3400008B808A80B27047008A80B2704700BFFD
:100F440083889BB21AB923EA01018180704719434F
:100F540081807047838823F4C04213041A0C828072
:100F640083889AB211438180704700BF0123090925
:100F740003FA01F1838889B29BB21AB923EA010208
:100F84008280704719438180704700BF008900F454
:100F9400C0507047008900F4C0607047038919424B
:100FA4000CBF002001207047C9438AB202817047F8
:100FB40010B484880089012201F00F0380B202FA80
:100FC40003F31840A4B206D0090902FA01F214424C
:100FD4000CBF0020012010BC704700BF08B54FF4BF
:100FE4006053C4F20103984218D04FF48841C4F20C
:100FF400000188421ED04FF49042C4F20002904295
:1010040000D008BD01214FF48020FFF7BFFD4FF44D
:1010140080200021BDE80840FFF7B8BD01214FF44E
:101024008040FFF7A5FD4FF480400021BDE8084053
:10103400FFF79EBD01214FF40030FFF7A7FD4FF4E9
:1010440000300021BDE80840FFF7A0BDF0B50768F7
:101054008E6804460D4627F00107C8682A69496866
:101064006B692760676827F440573E4366602668CB
:10107400084326F4B05121F00C06024332432260A7
:10108400A06820F440718DB00B43A3606846FFF75D
:101094002FFC4FF46052C4F20102944227D04FF463
:1010A4008840C4F2000084420CBF0A990B9923685B
:1010B4002A68180416D54800B0FBF2F302FB1301AA
:1010C400B1EB520F226828BF0133120406D54FF644
:1010D400F070C3F34201184041EA00039AB2A281BE
:1010E4000DB0F0BDB1FBF2F302FB1311E8E709996F
:1010F400DDE700BF00234FF4165280E80C000C22F9
:101104008360C36002614361704700BF30B491E8FB
:1011140028008C684268C9682B43234322F4706218
:101124000B431343436030BC704700BF002303608C
:1011340043608360C3607047036819B923F00101F9
:101144000160704743F001020260704703681AB9F6
:1011540023EA01010160704719430160704700BF31
:10116400036819B923F400410160704743F4004255
:1011740002607047836819B923F400618160704785
:1011840043F4006282607047436819B923F4002174
:101194004160704743F4002242607047436819B9C4
:1011A40023F480214160704743F4802242607047F9
:1011B40043681AB923EA0101416070471943416049
:1011C400704700BF436819B923F400414160704778
:1011D40043F4004242607047436819B923F40001A4
:1011E4004160704743F4000242607047436903F072
:1011F4007F4242614369194341617047038A03F4A2
:101204007F420282038A9AB211430182704700BF6F
:10121400036819B923F002010160704743F0020228
:1012240002607047836823F4401282608368194324
:1012340081607047436819B923F480114160704795
:1012440043F4801242607047436823F4C002426052
:101254004368194341607047C905CA0D0285704748
:10126400808CC105C80D7047436823F07F424260FB
:10127400436843EA01614160704700BF036819B9DC
:1012840023F400510160704743F400520260704738
:10129400036823F400620260036819430160704725
:1012A400436823F010024260436819434160704769
:1012B400436823F020024260436819434160704749
:1012C400436819B923F480414160704743F4804274
:1012D40042607047836819B923F008018160704740
:1012E40043F0080282607047038ADAB20282038AFA
:1012F4009AB242EA01210182704700BF836819B99A
:1013040023F020018160704743F02002826070471F
:10131400836819B923F010018160704743F010020B
:1013240082607047836823F460228260836843EAA2
:1013340041418160704700BF436923F07F424261AD
:10134400436943EA01614161704700BF836823F048
:10135400040282608368194381607047836819B905
:1013640023F002018160704743F0020282607047FB
:10137400836819B923F480418160704743F4804243
:1013840082607047836823F4004282608368194353
:1013940081607047036823F078720260036843EA4F
:1013A40041510160704700BF036823F4F8120260E2
:1013B400036843EA01410160704700BF83681AB9BA
:1013C40023EA01018160704719438160704700BFBF
:1013D400836823F4005282608368194381607047F4
:1013E400CBB2C1F3072110B40124022904FA03F398
:1013F4000DD0032908BF08302AB9026822EA030184
:10140400016010BC7047026813430360F9E70430BD
:10141400F2E700BF038B22B99AB222EA01010183E9
:10142400704719438BB20383704700BF836823F46A
:10143400805282608368194381607047C36919428E
:101444000CBF0020012070470162704710B4C1F343
:1014540007230124CAB2A34204FA02F212D0022BD7
:101464000CBF436883681340C0694BB1090C012366
:1014740003FA01F202420CBF0020012010BC7047A5
:101484001846FBE703681340EEE700BF090C01238D
:1014940003FA01F202627047B0F1904F08B52AD006
:1014A4004FF48063C4F60003984230D04FF40061D7
:1014B400C4F60001884236D04FF44062C4F60002FC
:1014C40090423CD04FF48053C4F60003984242D07B
:1014D4004FF4A051C4F60001884200D008BD012198
:1014E4004FF48000FFF736FB4FF480000021BDE885
:1014F4000840FFF72FBB01214FF40030FFF72AFB10
:101504004FF400300021BDE80840FFF723BB012160
:101514004FF48020FFF71EFB4FF480200021BDE82C
:101524000840FFF717BB01214FF40020FFF712FB1F
:101534004FF400200021BDE80840FFF70BBB012158
:101544004FF48010FFF706FB4FF480100021BDE834
:101554000840FFF7FFBA01214FF40010FFF7FAFA31
:101564004FF400100021BDE80840FFF7F3BA00BFB4
:1015740000222DE9F00F13460D6801264FF0030CED
:101584000BE0013306FA03F404EA05070232A7422A
:1015940031D001330232102B51D006FA03F404EA9D
:1015A4000507A742EDD10C7904F1FF38B8F1010F1A
:1015B40048D90CFA02F76FEA0708076891F8079010
:1015C40008EA07070760076804FA02F43C4304606A
:1015D400C4680CFA02F724EA0704C460C76809FA6D
:1015E40002F43C430133C46006FA03F404EA050739
:1015F4000232A742CDD10C7904F1FF38B8F1010FC2
:1016040046D90CFA02F76FEA0708076891F80790C1
:1016140008EA07070760076804FA02F43C43046019
:10162400C4680CFA02F724EA0704C460C76809FA1C
:1016340002F401333C430232102BC460ADD1BDE847
:10164400F00F7047D0F808B091F8059091F806A013
:101654000CFA02F86FEA080808EA0B0BC0F808B0A5
:10166400D0F808B009FA02F949EA0B09C0F8089061
:10167400B0F804901FFA89F929EA07078780B0F8BF
:1016840004900AFA03F747EA0907BFB2878094E790
:10169400D0F808B091F8059091F806A00CFA02F879
:1016A4006FEA080808EA0B0BC0F808B0D0F808B0D5
:1016B40009FA02F949EA0B09C0F80890B0F8049055
:1016C4001FFA89F929EA07078780B0F804900AFA13
:1016D40003F747EA0907BFB2878096E700234FF66E
:1016E400FF7202210260037141718371C3717047FB
:1016F40082B04FF480330193019A41EA02030193CB
:10170400019AC261C1610199C161C3690193C06950
:10171400019002B0704700BF038A19420CBF002039
:1017240001207047008A80B2704700BF838A194243
:101734000CBF002001207047808A80B2704700BF30
:1017440081617047018570470AB9018570478161DD
:10175400704700BF81827047CB08083301F007014E
:1017640030B4890050F823500F2404FA01F425EA18
:10177400040440F8234050F8234002FA01F21443D1
:1017840040F8234030BC70474FF46D4340F0BF60D5
:10179400CEF2000340F40031D9607047C37870B4CE
:1017A4007BB902784FF461435109CEF2000302F091
:1017B4001F022031012000FA02F243F8212070BCFC
:1017C40070474FF46D44CEF200044578E66884789F
:1017D4000378F143C1F302220F26C2F1040126FA71
:1017E40002F205FA01F122400A4303F1604303F5D2
:1017F40061411201D3B281F8003300784FF46143A0
:10180400410900F01F02CEF20003012000FA02F2A7
:1018140043F82120D3E700BF21F060414FF46D432A
:1018240021F07F02CEF2000310439860704700BF9E
:101834004FF46D43CEF200031A6919B922EA00008D
:101844001861704710431861704700BF4EF21003CF
:10185400CEF2000304281A680CBF42F0040222F0FE
:1018640004021A60704700BF10B5034C14B1AFF303
:10187400008010BD204610BD0000000008B5084BD4
:1018840004461BB10021AFF3008001E000F00CF826
:1018940004480068816A01B18847204600F048F88E
:1018A40000000000C819000870B5084B084CE01A85
:1018B400841003EB84060025043D1CB17259904743
:1018C400013CF9E7BDE8704000F08CB8041A000848
:1018D400081A000838B50E4D0E4BE81A851000247E
:1018E400AC4205D00B4951F8242090470134F7E766
:1018F40000F072F80849094A541AA5100024AC42B1
:1019040005D0054B53F8240080470134F7E738BD70
:10191400001A0008001A0008001A0008041A000837
:1019240082180346934202D003F8011BFAE770477A
:10193400FEE700BF08B5FEF785FDFEF7F3FD4FF4A3
:101944004050C4F201000121FFF768FA4FF44050FF
:10195400C4F2010060210122FFF708FB4FF4884024
:10196400C4F200000149FEF71DFEFEE7CC19000891
:10197400002100F004B80C4B5B58435004310B4871
:101984000B4B42189A42FFF4F6AF0A4A00F003B830
:10199400002342F8043B084B9A42FFF4F9AFFEF7E8
:1019A400ABFCFFF7C7FF7047081A000800000020CF
:1019B400A4000020A8000020C8000020FFF7FEBFFC
:1019C400430000003C00002053797320496E697481
:1019D400204F6B2100000000F8B500BFF8BC08BC24
:1019E4009E467047F8B500BFF8BC08BC9E467047D9
:0419F40000000000EF
:0819F800E0E7FF7F01000000A1
:041A0000A901000830
:041A04008501000850
:101A080000000000000000000000000001020304C4
:101A18000607080900A24A040000000001020304A6
:101A2800010203040607080902040608020406085E
:101A38000A0C0E1014181C2024282C30000000005A
:101A4800000000000000000000000000000000008E
:101A5800000000000000000000000000C419000899
:101A6800000000000000000000000000000000006E
:101A7800000000000000000000000000000000005E
:101A8800000000000000000000000000000000004E
:101A9800000000000000000000000000000000003E
:041AA8003C000020DE
:041AAC000000000036
:040000050800197561
:00000001FF
