:020000040800F2
:1000000000A00020B5110008890100088D0100083A
:100010009101000895010008990100080000000006
:100020000000000000000000000000009D0100082A
:10003000A101000800000000A5010008A9010008B6
:10004000F9110008F9110008F9110008F911000868
:10005000F9110008F9110008AD010008F9110008B4
:10006000F9110008F9110008F9110008F911000848
:10007000F9110008F9110008F9110008F911000838
:10008000F9110008F9110008F9110008F911000828
:10009000F9110008F9110008F9110008F911000818
:1000A000F9110008F9110008F9110008F911000808
:1000B000F9110008F9110008F9110008F9110008F8
:1000C000F9110008F9110008F9110008F9110008E8
:1000D000F9110008F9110008F9110008F9110008D8
:1000E000F9110008F9110008F9110008F9110008C8
:1000F000F9110008F9110008F9110008F9110008B8
:10010000000000000000000000000000F9110008DD
:10011000F9110008F9110008F9110008F911000897
:10012000F9110008F9110008F9110008F911000887
:10013000F9110008F911000800000000000000009B
:10014000F9110008F9110008F91100080000000079
:10015000000000000000000000000000000000009F
:100160000000000000000000F9110008F91100086B
:10017000F91100080000000000000000000000006D
:0801800000000000F911000865
:10018800704700BFFEE700BFFEE700BFFEE700BF05
:10019800FEE700BF704700BF704700BF704700BF51
:1001A800704700BF08B5002000F0E0FA00B908BDAC
:1001B8004FF480504FF40041C4F6000000F0EAFB11
:1001C800C0F101024FF48050C4F600004FF4004122
:1001D800D2B200F0EDFB0020BDE8084000F0E0BA24
:1001E8004FF46D42CEF200024FF48053D2F88810DB
:1001F800C4F2020341F47001C2F888101A6842F090
:1002080001021A6059684CF20C02CFF67F020A40CC
:100218005A601A6822F0847222F480321A601A68CE
:1002280022F480221A605A6822F4FE025A60DA6ABE
:1002380022F00F02DA62186B4FF6CC4282B0CFF68A
:100248000072002102401A639960009101911A68B6
:1002580042F4A0221A601A4603E0009BB3F5A06F8F
:1002680009D0136803F400330193009B0133009312
:10027800019B002BF1D04FF48053C4F202031B689A
:1002880013F4003308BF019301D001230193019BAC
:10029800012B08D04FF46D43CEF200034FF00062FB
:1002A8009A6002B070474FF40052C4F202024FF451
:1002B8008053C4F20203122111605A685A605A68C6
:1002C8005A605A6842F480625A605A6822F47C1272
:1002D8005A605A6842F4E8125A601A6842F080720A
:1002E8001A6019460A684FF480539201C4F2020357
:1002F800F8D55A6822F003025A605A6842F002029E
:100308005A605A6802F00C02082AFAD1C2E700BF04
:100318004FF48053C4F202035A6802F00C02082A10
:100328001CBF4FF49051C0F27A010BD04FF48052A9
:10033800C4F20202114B5268C2F303129A5CD14014
:10034800196170475A685868C2F383420232C10380
:1003580006D44FF41061C0F23D0101FB02F1E5E75C
:10036800D96A4FF4905301F00F010131C0F27A03BA
:10037800B3FBF1F102FB01F1D8E700BF0000002058
:10038800FC11000800000020400000204000002070
:10039800440000204FF46D4340F0BF60CEF20003EC
:1003A80040F40030D8607047C37870B47BB90278E5
:1003B8004FF461435109CEF2000302F01F022031CD
:1003C800012010FA02F243F8212070BC70474FF464
:1003D8006D43CEF200034578DA6884780378D24317
:1003E800C2F302220F26C2F1040136FA02F215FA0C
:1003F80001F122400A4303F1604303F5614312010E
:10040800D2B283F8002302784FF461435109CEF247
:10041800000302F01F02012010FA02F243F8212023
:10042800D3E700BF21F060414FF46D4321F07F0115
:10043800CEF2000301439960704700BF4FF46D434B
:10044800CEF200031A6919B922EA00001861704750
:1004580010431861704700BF4EF21003CEF200033C
:1004680004281A680CBF42F0040222F004021A6041
:10047800704700BF0023C4F201030022196801F08D
:1004880003011960196841F0F84119605A609A60CF
:10049800DA601A615A619A61704700BF0023C4F29A
:1004A80001031A6822F0030202431A60704700BF72
:1004B8000023C4F201031A6819B922EA000018607F
:1004C80070471043186070470023C4F201031A688C
:1004D80019B922EA00001860704710431860704785
:1004E8000023C4F201031A6822F440021A601A6851
:1004F80002431A60704700BF1423C4F22023186017
:10050800704700BF0023C4F201031A6819B922EA30
:100518000000186070471043186070470023C4F249
:1005280001031A6819B922EA0000186070471043DD
:10053800186070478A080023C4F20103023201F0F0
:10054800030130B4890053F822500F248C4025EA67
:10055800040443F8224053F8224010FA01F10C43F6
:1005680043F8224030BC70470023C4F201039A6963
:1005780002439A61704700BF4FF44473C4F22023CA
:1005880001221A60704700BF0023C4F201035A68B1
:1005980002435A60704700BF0023C4F20103986900
:1005A800C0F30020704700BF0023C4F201039A691A
:1005B80002439A61704700BF4FF48063C4F201039D
:1005C8004FF0FC51196000226FF0FC515A609A609C
:1005D800DA601A6159610C2119625A629A62DA6208
:1005E8001A6303225A6370478379F0B4002B5CD0F6
:1005F800046801794679620902F1007202F5026223
:1006080052010123156804F01F0413FA04F425EAC3
:1006180004041460056840F2044225F01F04C4F283
:10062800010205F01F05A75813FA05F527EA050585
:10063800A550046801F1804124F01F0201F58231C0
:1006480004F01F048D5813FA04F42C438C500468EA
:100658004FF4816124F01F02C4F2010104F01F0469
:10066800555813FA04F425EA04045450056840F276
:100678000C4225F01F04C4F2010205F01F05A7581B
:1006880013FA05F527EA0505102EA55020D00168B4
:1006980006F1804621F01F0206F5823601F01F019F
:1006A800B0588B400343B35010E00279016802F15F
:1006B800804221F01F0302F5823201F01F01D05859
:1006C800012414FA01F120EA0101D150F0BC70476D
:1006D800056825F01F0405F01F05665813FA05F58F
:1006E80035436550006820F01F0100F01F008C584A
:1006F800834023438B50E9E70023102203600371F2
:1007080042718371704700BF4FF4826320F01F026B
:10071800C4F2010310B4D15800F01F00012414FAE8
:1007280000F00843D05010BC704700BF40F214439B
:1007380020F01F02C4F2010300F01F00D358012269
:1007480012FA00F003420CBF00200120704700BFDE
:1007580040F2144320F01F02C4F2010300F01F000E
:10076800012111FA00F0D050704700BF420902F190
:10077800007101F5026140F2144349015201C4F2CB
:10078800010300F01F000968D2580123834012EAD0
:10079800030003D019420CBF00200120704700BF9E
:1007A80040F2144320F01F02C4F2010300F01F00BE
:1007B800012111FA00F0D050704700BFB0F1904FFE
:1007C80008B52AD04FF48063C4F60003984230D0AD
:1007D8004FF40063C4F60003984236D04FF44063E8
:1007E800C4F6000398423CD04FF48053C4F600038B
:1007F800984242D04FF4A053C4F60003984200D068
:1008080008BD01214FF4800000F0FAFB4FF480008E
:100818000021BDE8084000F0F3BB01214FF400308F
:1008280000F0EEFB4FF400300021BDE8084000F076
:10083800E7BB01214FF4802000F0E2FB4FF4802059
:100848000021BDE8084000F0DBBB01214FF4002087
:1008580000F0D6FB4FF400200021BDE8084000F06E
:10086800CFBB01214FF4801000F0CAFB4FF4801079
:100878000021BDE8084000F0C3BB01214FF400107F
:1008880000F0BEFB4FF400100021BDE8084000F066
:10089800B7BB00BF00232DE9F00F0A681C460126EC
:1008A8004FF0030803E001340233102C2BD016FA62
:1008B80004F707EA0205BD42F5D10F7907F1FF3CBD
:1008C800BCF1010F84BF08FA03FC6FEA0C0C1DD9B8
:1008D800D0F80090CD790CEA090CC0F800C0D0F827
:1008E80000C09F4047EA0C070760C76808FA03FC86
:1008F80027EA0C07C760C7689D4001343D430233AF
:10090800102CC560D3D1BDE8F00F7047D0F808901F
:1009180091F805A091F806B008FA03FC6FEA0C0CF0
:100928000CEA0909C0F80890D0F808900AFA03FA06
:100938004AEA0909C0F80890B0F804901FFA89F942
:1009480029EA0505858085880BFA04FB4BEA050B27
:100958001FFA8BFBA0F804B0BAE700BF4FF6FF728E
:10096800002302600122037142718371C3717047D1
:1009780041F48033C361C161C361C369C36970470E
:10098800038A19420CBF002001207047008A80B2F8
:10099800704700BF838A19420CBF002001207047AE
:1009A800808A80B2704700BF8161704701857047B7
:1009B8000AB9018570478161704700BF818270471D
:1009C800CB08083301F0070130B4890050F82350F0
:1009D8000F248C4025EA040440F8234050F82340B3
:1009E80012FA01F10C4340F8234030BC704700BFB5
:1009F8004FF48053C4F202034FF44042196841F0A7
:100A0800010119605968CFF6FF020A405A601A6856
:100A180022F0847222F480321A601A6822F480224A
:100A28001A605A6822F4FE025A60DA6A22F47F5287
:100A380022F03F02DA62196B4FF6CC42C0F6007220
:100A48000A401A6300229A60704700BF41F202030D
:100A5800C4F2020300221A70187070474FF48053D2
:100A6800C4F202031A6822F0F80242EAC0021A60CD
:100A7800704700BF0023C4F242231860704700BFCC
:100A88004FF48053C4F202031A6A22F001021A6278
:100A98001A6A22F004021A621A6A02431A6270473A
:100AA8004FF48053C4F202031A6A22F018021A6241
:100AB8001A6A02431A6270474FF49063C4F24223E1
:100AC800186070474FF48053C4F202035A6822F446
:100AD80074125A605A6802430A435A60704700BF4A
:100AE8006023C4F242231860704700BF4FF480535C
:100AF800C4F20203DA6A22F00F020243DA62704794
:100B08004C23C4F242231860704700BF41F2070328
:100B1800C4F20203187070474FF48053C4F2020302
:100B28005A6822F0030202435A6070474FF4805318
:100B3800C4F20203586800F00C0070474FF4805369
:100B4800C4F202035A6822F0F00202435A60704766
:100B58004FF48053C4F202035A6822F4E06202435D
:100B68005A6070474FF48053C4F202035A6822F463
:100B7800605242EAC0025A60704700BF4FF4805387
:100B8800C4F20203F0B45D6805F00C05042D00F012
:100B98005781082D00F03E814FF49051C0F27A0140
:100BA8000160002D40F02B814FF48052C4F2020204
:100BB800AB4B5468C4F303141E5D31FA06F4446069
:100BC8005768C7F30227DF5D34FA07F7876057686D
:100BD800C7F3C227DF5DFC40C460D26AC2F30412C7
:100BE80003EB4202128A92B212F0100F1CBFB5FB3F
:100BF800F2F202614FF48052C4F2020208BF0161AE
:100C0800D26AC2F3442203EB42031B8A9BB2DA0680
:100C180044BFB5FBF3F343614FF48053C4F20203BE
:100C280058BF41611B6BDA065EBF4FF49053C0F2A8
:100C38007A0383614FF48053C4F2020348BF816191
:100C48001B6B9B065EBF4FF49053C0F27A03C361DF
:100C58004FF48053C4F2020348BFC1611B6BDA052D
:100C680004D58D4208BFB74200F0CB8004624FF430
:100C78008053C4F202031B6B9B0504D58D4208BF49
:100C8800B74200F0C18044624FF48053C4F20203BB
:100C98001A6B920708BF846219D01A6B02F003021C
:100CA800012A08BF816212D01A6B02F00302022ADD
:100CB80004BF4FF40043836209D01B6B03F00303A6
:100CC800032B02BF4FF49053C0F27A0383624FF4B0
:100CD8008053C4F202031A6B12F4403F3BD183687D
:100CE800C3624FF48053C4F202031A6B12F4402F0C
:100CF80069D1836803634FF48053C4F202031A6B0B
:100D080012F4401F43D1836843634FF48053C4F205
:100D180002031A6B12F4400F79D01A6B02F44002E6
:100D2800B2F5800F00F0A5801A6B02F44002B2F50C
:100D3800000F04BF4FF4004383630AD01B6B03F416
:100D48004003B3F5400F02BF4FF49053C0F27A034B
:100D58008363F0BC70471A6B02F44032B2F5803FEF
:100D680078D01A6B02F44032B2F5003F04BF4FF45A
:100D78000043C362B5D01B6B03F44033B3F5403F67
:100D880002BF4FF49053C0F27A03C362A9E71A6B0B
:100D980002F44012B2F5801F5FD01A6B02F44012C1
:100DA800B2F5001F04BF4FF400434363ADD01B6B83
:100DB80003F44013B3F5401F02BF4FF49053C0F241
:100DC8007A034363A1E71A6B02F44022B2F5802F3D
:100DD8003DD01A6B02F44022B2F5002F04BF4FF445
:100DE8000043036387D01B6B03F44023B3F5402F04
:100DF80002BF4FF49053C0F27A0303637BE70025E8
:100E0800D2E66B00036232E76D0045623CE7836817
:100E180083639EE75A685968C2F383420232C90362
:100E280020D5DD6A4FF4905305F00F050135C0F267
:100E38007A03B3FBF5F502FB05F505602946B3E631
:100E48004FF49051C0F27A0101600025ACE60368C6
:100E5800036350E70368C36243E70368436354E7E7
:100E6800140000204FF41065C0F23D0505FB02F5A3
:100E7800E3E7036883636CE7030F4FF48053C4F21E
:100E88000203DA6A14BF22F4785222F4F872DA62A2
:100E98004FF48053C4F20203DA6A1043D8627047F1
:100EA800030F4FF48053C4F202031A6B14BF22F0ED
:100EB800200222F010021A634FF48053C4F2020396
:100EC8001A6B104318637047030F4FF48053C4F232
:100ED80002031A6B14BF22F4007222F480721A63A0
:100EE8004FF48053C4F202031A6B1043186370471F
:100EF800030F013B042B0CD8DFE803F0031C252E5D
:100F080013004FF48053C4F202031A6B22F0030259
:100F18001A634FF48053C4F202031A6B1043186328
:100F280070474FF48053C4F202031A6B22F4400254
:100F38001A63EEE74FF48053C4F202031A6B22F4EB
:100F480040321A63E5E74FF48053C4F202031A6B88
:100F580022F440221A63DCE74FF48053C4F2020300
:100F68001A6B22F440121A63D3E700BFD823C4F2E5
:100F780042231860704700BF4FF48053C4F2020345
:100F88001A6A02431A627047DC23C4F242231860CB
:100F9800704700BF40F23C43C4F2422318607047D8
:100FA8004FF48863C4F24223186070474FF48053AB
:100FB800C4F202035A6919B922EA0000586170475D
:100FC80010435861704700BF4FF48053C4F20203C6
:100FD8009A6919B922EA000098617047104398612C
:100FE800704700BF4FF48053C4F20203DA6919B99D
:100FF80022EA0000D86170471043D861704700BFEB
:101008004FF48053C4F202039A6A19B922EA000025
:101018009862704710439862704700BF4FF480533E
:10102800C4F20203DA6819B922EA0000D8607047EE
:101038001043D860704700BF4FF48053C4F20203D6
:101048001A6919B922EA000018617047104318613B
:10105800704700BF41F20903C4F202031A7819B9B4
:1010680022EA00001870704710431870704700BFDC
:1010780043090BD14FF48053C4F202031B6800F0FC
:101088001F0033FA00F000F001007047012B08D070
:10109800042B4FF48053C4F202030CBF5B685B6AF5
:1010A800EDE74FF48053C4F202031B6AE7E700BF81
:1010B80000B583B00023019300E048B91120FFF781
:1010C800D7FF019B01330193019BB3F5A06FF4D1C6
:1010D8001120FFF7CDFF003018BF012003B000BD7D
:1010E8004FF48053C4F202035A6A42F080725A6283
:1010F800704700BF4FF48053C4F202039B68184244
:101108000CBF00200120704741F20A03C4F2020319
:101118001870704700B54FF4001087B00121FFF731
:1011280045FF4FF400434FF4805000240125C4F6D6
:10113800000001A9019303238DF809308DF80850A8
:101148008DF80A408DF80B40FFF7A4FB4FF40030F0
:101158002946FFF72BFF28462946FFF735FF20468B
:101168002146FFF7E7F94FF0904001A901958DF866
:101178000B408DF80840FFF78DFB082303A88DF876
:10118800113003948DF810408DF81250FFF72CFAA7
:101198000F23062205A88DF814208DF815308DF838
:1011A80016308DF81750FFF7FFF8FEE7002103E02F
:1011B8000A4B5B584350043109480A4B42189A427B
:1011C800F6D3094A02E0002342F8043B074B9A424F
:1011D800F9D3FFF705F8FFF79DFF7047FC110008EA
:1011E80000000020400000204000002044000020B3
:0411F800FEE700000E
:1011FC0000000000000000000102030406070809BB
:10120C0000A24A04000000000102030401020304CE
:10121C00060708090000010002000400060008008F
:10122C000A000C00100020004000800000010000AB
:04000005080011B529
:00000001FF
