:020000040800F2
:100000000080002095210008490200084D020008E8
:1000100051020008550200085902000800000000C3
:10002000000000000000000000000000492200085D
:100030005D020008000000000922000861020008BB
:10004000E1210008E1210008E1210008E121000888
:10005000E1210008E1210008E1210008E121000878
:10006000E1210008E1210008E1210008E121000868
:10007000E1210008E1210008E1210008E121000858
:10008000E1210008E1210008E1210008E121000848
:10009000E1210008E1210008E1210008E121000838
:1000A000E1210008E1210008E1210008E121000828
:1000B000E1210008E1210008E1210008E121000818
:1000C000E1210008E1210008E1210008E121000808
:1000D000E1210008E1210008E1210008E1210008F8
:1000E000E1210008E1210008E1210008E1210008E8
:1000F000E1210008E12100080000000000000000EC
:100100000000000000000000E1210008E1210008DB
:100110000000000000000000E1210008E1210008CB
:10012000E1210008E1210008E1210008E1210008A7
:10013000E1210008E1210008E1210008E121000897
:10014000E1210008000000000000000000000000A5
:10015000000000000000000000000000000000009F
:100160000000000000000000E1210008E12100087B
:10017000E121000800000000E1210008000000006B
:04018000E121000871
:1001840010B5054C237833B9044810B10448AFF3D3
:1001940000800121217010BDAC000020000000008F
:1001A400FC23000808B5064B1BB106480649AFF30B
:1001B40000800648016811B1054A02B1904708BDA4
:1001C40000000000FC230008B0000020A80000206C
:1001D40000000000154B002B08BF134B9D46A3F5F0
:1001E400803A00218B460F461348144A121A01F034
:1001F40097FF0F4B002B00D098470E4B002B00D0DD
:1002040098470020002104460D4600200C49002296
:10021400002301F029FF01F05DFF2046294601F08B
:1002240089FF01F02BFF00BF000008000000000060
:100234000000000000000000AC0000201C020020B0
:10024400AD200008704700BFFEE700BFFEE700BF17
:10025400FEE700BFFEE700BF704700BF002001F0CB
:10026400A5B900BF4FF46D42CEF200024FF48053A3
:10027400D2F88810C4F2020341F4700010B4C2F83A
:1002840088001C6844F001021A6059684CF20C00A2
:10029400CFF67F00084058601C6824F0847222F472
:1002A40080311960186820F480241C605A6822F494
:1002B400FE015960D86A20F00F04DC621C6B4FF613
:1002C400CC424FF40050CFF6007283B0C4F2020067
:1002D40022401A6300211222996000910191026068
:1002E40058685860596841F480625A60586820F42C
:1002F4007C1159605A6842F460105860196841F0E2
:1003040080721A6018684FF480528101C4F20202AC
:10031400F8D5536823F003015160506840F002039C
:100324005360516801F00C000828FAD14FF46D4372
:10033400CEF200034FF000629A6003B010BC704725
:100344004FF48053C4F202035A6802F00C000828E8
:1003540010D04FF49051C0F27A014FF48052C4F29D
:10036400020212485368C3F30312835C21FA03F1B7
:10037400016170475A685868C2F383418A1CC003FC
:1003840006D44FF41063C0F23D0303FB02F1E4E72B
:10039400D86A4FF4905300F00F01481CC0F27A035E
:1003A400B3FBF0F102FB01F1D7E700BF040000202A
:1003B40010B50446322100F12000A4620A4601F07F
:1003C40069FD40F2D533C0F60003A360042010BDDC
:1003D40010B50C88012C06D0042C08D0064B002440
:1003E4008360204610BD00F0CDF8204610BD0349BF
:1003F4008160204610BD00BFFD1E000805040008F2
:1004040010B50C88012C06D0042C08D0064B00240F
:100414008360204610BD00F0ABF8204610BD0349B0
:100424008160204610BD00BFFD1E0008D5030008F2
:10043400704700BF00F0B0B8704700BF704700BFFE
:10044400002001F0B3B800BF70B5012188B04FF4AB
:10045400003000F039FB01214FF4003000F018FBAC
:10046400022107224FF0904000F064FF4FF48845CA
:10047400072203214FF0904000F05CFF0024022388
:1004840003220C266946C4F200054FF090408DF813
:1004940004308DF8052000968DF806408DF807404D
:1004A40000F054FE02A928464FF4E133029303946A
:1004B400049405940794069600F0B6FB284601219F
:1004C40000F028FC08B070BD0EB4F0B586B00BABDC
:1004D400044653F8045B29780193002791B15C2901
:1004E4002FD0252928D16878642835D073280ED0D8
:1004F40002352046402100F08FFD0028F9D02978EC
:100504000029ECD106B0BDE8F04003B07047019A71
:1005140016683178131D01930029E9D0204600F0B4
:1005240089FC2046402100F077FD0028F9D016F818
:10053400011F0029F2D1DBE72046013500F07AFCE7
:10054400D7E76A786E2A0DD0722AD1D120460D21C0
:1005540000F070FC0235CCE701998DF80870081D95
:100564000190C5E720460A2100F064FC0235C0E78B
:100574004FF4884042F2CC31C4F20000C0F60001CE
:10058400FFF7A2BF4FF4884042F2D831C4F2000012
:10059400C0F60001FFF798BF00B583B00023FF2227
:1005A400012101A88DF804208DF805308DF806305E
:1005B4008DF8071000F0E0FE042000F035FF4EF245
:1005C4001000CEF200004FF44443C0F2090343602C
:1005D400026842F00301016003B000BD102400086A
:1005E40000000020A8000020AC0000201C02002015
:1005F4004FF48053C4F202031A6842F001001860F9
:10060400596801F47F025A60186820F0847121F45B
:1006140080321A60186820F4802119605A6822F424
:10062400FE005860D96A21F00F02DA62186B20F0DC
:10063400F02121F0730200201A639860704700BF14
:1006440041F20203C4F2020300221A7018707047C8
:1006540082B04FF4805200230193C4F20202106866
:1006640083030CD5019A511C0191019B4FF48053D3
:10067400C4F202031868C0F3404002B07047019905
:100684004B1C01930198B0F5A06FE8D1EEE700BFD1
:100694004FF48053C4F202031A6822F0F80141EACD
:1006A400C0001860704700BF0023C4F242231860E2
:1006B400704700BF4FF48053C4F202031A6A22F059
:1006C400010119621A6A22F0040119621A6A1043BC
:1006D400186270474FF48053C4F202031A6A22F07E
:1006E400180119621A6A1043186270474FF4906334
:1006F400C4F24223186070474FF48053C4F20203DB
:100704005A6822F474125A605A68104301435960BB
:10071400704700BF6023C4F242231860704700BFD3
:100724004FF48053C4F20203DA6A22F00F01084343
:10073400D86270474C23C4F242231860704700BF4C
:1007440041F20703C4F20203187070474FF4805358
:10075400C4F202035A6822F0030108435860704748
:100764004FF48053C4F20203586800F00C00704741
:100774004FF48053C4F202035A6822F0F001084394
:10078400586070474FF48053C4F202035A6822F44D
:10079400E0610843586070474FF48053C4F2020389
:1007A4005A6822F4605141EAC0005860704700BFA3
:1007B4004FF48053C4F202035A6822F44041596052
:1007C4005A681043586070474FF48053C4F20203D0
:1007D4005A6822F0784159605A681043586070474B
:1007E4004FF48053C4F202031A6B22F040011963E0
:1007F4001A6B104318637047030F4FF48053C4F20D
:1008040002034FF480511A6BC4F202010CBF22F0B0
:10081400100222F020021A630B6B1843086370471E
:10082400030F022B1DD0032B12D0012B07D04FF442
:100834008051C4F202010A6B1043086370474FF4FD
:100844008051C4F202010A6B22F003030B63EEE74A
:100854004FF48051C4F202010A6B22F440230B636B
:10086400E5E74FF48051C4F202010A6B22F44033ED
:100874000B63DCE7D823C4F242231860704700BF3F
:100884004FF48053C4F2020370B45A6802F00C01AE
:10089400042902D0082900F0B5804FF49051C0F229
:1008A4007A0101604FF48053C4F202036D4A5D681B
:1008B400C5F30314165D21FA06F444605D68C5F3BC
:1008C4000226955D24FA05F585605E68C6F3C226A6
:1008D400965D24FA06F4C4605E68C6F38136961900
:1008E400367CB4FBF6F606615E68C6F3C3669219FD
:1008F400127DB1FBF2F242611B6B5A064FF4805336
:1009040054BF48F212024FF40042C4F2020382615F
:100914001B6BDA0658BF4FF490534FF48052C4F265
:1009240002025ABFC0F27A03C361C161136B9A0613
:1009340058BF4FF490524FF4805358BFC0F27A021C
:10094400C4F2020354BF026201621A6B92072AD1F5
:1009540044624FF48053C4F202031A6B12F4403F12
:1009640036D185624FF48053C4F202031A6B12F439
:10097400402F45D01A6B02F44022B2F5802F62D08A
:10098400196B01F44022B2F5002F66D01B6B03F4FF
:100994004021B1F5402F04D14FF49052C0F27A02B5
:1009A400C26270BC70471A6B02F00302012A3AD08B
:1009B4001A6B02F00302022A47D01B6B03F00302F6
:1009C400032AC6D14FF49053C0F27A034362C0E7BE
:1009D4001A6B02F44032B2F5803F22D01A6B02F453
:1009E4004032B2F5003F34D01B6B03F44032B2F511
:1009F400403FB7D14FF49053C0F27A038362B1E71A
:100A0400C562CEE75D685C68C5F38346B21CE1034A
:100A14000BD44FF41066C0F23D0606FB02F10160F0
:100A240040E781629EE7416293E7D96A4FF49053AD
:100A340001F00F056C1CC0F27A03B3FBF4F102FB66
:100A440001F101602EE7C162ABE74FF4004242625C
:100A54007FE74FF40042826284E74FF40043C362AD
:100A64009FE700BF1C0000204FF48053C4F2020330
:100A74001A6A10431862704740F23C43C4F242239E
:100A8400186070474FF48863C4F2422318607047BB
:100A94004FF48053C4F202035A6919B922EA0000E0
:100AA4005861704710435861704700BF4FF480533A
:100AB400C4F202039A6919B922EA000098617047E6
:100AC40010439861704700BF4FF48053C4F202038F
:100AD400DA6919B922EA0000D86170471043D86175
:100AE400704700BF4FF48053C4F202039A6A19B9E5
:100AF40022EA00009862704710439862704700BF72
:100B04004FF48053C4F20203DA6819B922EA0000F0
:100B1400D86070471043D860704700BF4FF48053CB
:100B2400C4F202031A6919B922EA00001861704775
:100B340010431861704700BF41F20903C4F2020375
:100B44001A7819B922EA0000187070471043187017
:100B5400704700BF43090BD14FF48052C4F2020224
:100B6400116800F01F0021FA00F303F00100704740
:100B74004FF48051C4F20201012B0CBF096A496A87
:100B8400EFE700BF4FF48053C4F202035A6A42F005
:100B940080705862704700BF4FF48053C4F2020360
:100BA400996808420CBF00200120704741F20A03F3
:100BB400C4F202031870704708B54FF46053C4F2CE
:100BC4000103984218D04FF48841C4F200018842CE
:100BD4001ED04FF49042C4F20002904200D008BDEF
:100BE40001214FF48020FFF799FF4FF4802000216A
:100BF400BDE80840FFF792BF01214FF48040FFF7A2
:100C04007FFF4FF480400021BDE80840FFF778BF24
:100C140001214FF40030FFF781FF4FF40030002131
:100C2400BDE80840FFF77ABFF0B507688E68044650
:100C34000D4627F00107C8682A6949686B6927606F
:100C4400676827F440573E4366602668084326F4E5
:100C5400B05121F00C06024332432260A06820F414
:100C640040718DB00B43A3606846FFF709FE4FF453
:100C74006052C4F20102944227D04FF48840C4F277
:100C8400000084420CBF0A990B9923682A6818044F
:100C940016D54800B0FBF2F302FB1301B1EB520F7F
:100CA400226828BF0133120406D54FF6F070C3F34F
:100CB4004201184041EA00039AB2A2810DB0F0BD8E
:100CC400B1FBF2F302FB1311E8E70999DDE700BF7A
:100CD40000234FF4165280E80C000C228360C3609A
:100CE40002614361704700BF30B491E828008C680A
:100CF4004268C9682B43234322F470620B431343B5
:100D0400436030BC704700BF0023036043608360CE
:100D1400C3607047036819B923F00101016070478B
:100D240043F001020260704703681AB923EA010123
:100D34000160704719430160704700BF036819B927
:100D440023F400410160704743F40042026070479D
:100D5400836819B923F400618160704743F4006229
:100D640082607047436819B923F4002141607047D9
:100D740043F4002242607047436819B923F4802188
:100D84004160704743F480224260704743681AB957
:100D940023EA01014160704719434160704700BF75
:100DA400436819B923F400414160704743F4004299
:100DB40042607047436819B923F4000141607047E9
:100DC40043F4000242607047436903F07F4242618A
:100DD4004369194341617047038A03F47F420282E5
:100DE400038A9AB211430182704700BF036819B99C
:100DF40023F002010160704743F002020260704771
:100E0400836823F4401282608368194381607047C9
:100E1400436819B923F480114160704743F4801288
:100E240042607047436823F4C00242604368194338
:100E340041607047C905CA0D02857047808CC105A1
:100E4400C80D7047436823F07F424260436843EA19
:100E540001614160704700BF036819B923F4005170
:100E64000160704743F4005202607047036823F442
:100E7400006202600368194301607047436823F00D
:100E8400100242604368194341607047436823F08D
:100E9400200242604368194341607047436819B9AE
:100EA40023F480414160704743F4804242607047BC
:100EB400836819B923F008018160704743F0080280
:100EC40082607047038ADAB20282038A9AB242EAE3
:100ED40001210182704700BF836819B923F0200102
:100EE4008160704743F0200282607047836819B9BB
:100EF40023F010018160704743F010028260704754
:100F0400836823F460228260836843EA41418160FC
:100F1400704700BF436923F07F424261436943EA5B
:100F240001614161704700BF836823F0040282605D
:100F34008368194381607047836819B923F00201FB
:100F44008160704743F0020282607047836819B978
:100F540023F480418160704743F48042826070478B
:100F6400836823F400428260836819438160704778
:100F7400036823F078720260036843EA4151016018
:100F8400704700BF036823F4F8120260036843EA61
:100F940001410160704700BF83681AB923EA010167
:100FA4008160704719438160704700BF836823F4F0
:100FB400005282608368194381607047CBB2C1F3E9
:100FC400072110B40124022904FA03F30DD00329E4
:100FD40008BF08302AB9026822EA0301016010BC84
:100FE4007047026813430360F9E70430F2E700BF77
:100FF400038B22B99AB222EA010101837047194393
:101004008BB20383704700BF836823F480528260ED
:101014008368194381607047C36919420CBF00207B
:10102400012070470162704710B4C1F30723012403
:10103400CAB2A34204FA02F212D0022B0CBF4368D4
:1010440083681340C0694BB1090C012303FA01F210
:1010540002420CBF0020012010BC70471846FBE779
:1010640003681340EEE700BF090C012303FA01F201
:1010740002627047B0F1904F08B52AD04FF48063F4
:10108400C4F60003984230D04FF40061C4F6000166
:10109400884236D04FF44062C4F6000290423CD0FD
:1010A4004FF48053C4F60003984242D04FF4A05149
:1010B400C4F60001884200D008BD01214FF480002D
:1010C400FFF710FD4FF480000021BDE80840FFF752
:1010D40009BD01214FF40030FFF704FD4FF4003047
:1010E4000021BDE80840FFF7FDBC01214FF480203A
:1010F400FFF7F8FC4FF480200021BDE80840FFF71B
:10110400F1BC01214FF40020FFF7ECFC4FF4002068
:101114000021BDE80840FFF7E5BC01214FF4801031
:10112400FFF7E0FC4FF480100021BDE80840FFF712
:10113400D9BC01214FF40010FFF7D4FC4FF4001088
:101144000021BDE80840FFF7CDBC00BF00222DE917
:10115400F00F13460D6801264FF0030C0BE001332A
:1011640006FA03F404EA05070232A74231D0013338
:101174000232102B51D006FA03F404EA0507A74201
:10118400EDD10C7904F1FF38B8F1010F48D90CFA0C
:1011940002F76FEA0708076891F8079008EA07075B
:1011A4000760076804FA02F43C430460C4680CFA5C
:1011B40002F724EA0704C460C76809FA02F43C434E
:1011C4000133C46006FA03F404EA05070232A742B5
:1011D400CDD10C7904F1FF38B8F1010F46D90CFADE
:1011E40002F76FEA0708076891F8079008EA07070B
:1011F4000760076804FA02F43C430460C4680CFA0C
:1012040002F724EA0704C460C76809FA02F4013348
:101214003C430232102BC460ADD1BDE8F00F7047DF
:10122400D0F808B091F8059091F806A00CFA02F8ED
:101234006FEA080808EA0B0BC0F808B0D0F808B049
:1012440009FA02F949EA0B09C0F80890B0F80490C9
:101254001FFA89F929EA07078780B0F804900AFA87
:1012640003F747EA0907BFB2878094E7D0F808B0CC
:1012740091F8059091F806A00CFA02F86FEA0808B4
:1012840008EA0B0BC0F808B0D0F808B009FA02F964
:1012940049EA0B09C0F80890B0F804901FFA89F9DC
:1012A40029EA07078780B0F804900AFA03F747EAA7
:1012B4000907BFB2878096E700234FF6FF72022129
:1012C4000260037141718371C371704782B04FF43E
:1012D40080330193019A41EA02030193019AC261A6
:1012E400C1610199C161C3690193C069019002B0F0
:1012F400704700BF038A19420CBF002001207047C9
:10130400008A80B2704700BF838A19420CBF002054
:1013140001207047808A80B2704700BF81617047A6
:10132400018570470AB9018570478161704700BF24
:1013340081827047CB08083301F0070130B489007B
:1013440050F823500F2404FA01F425EA040440F869
:10135400234050F8234002FA01F2144340F823409A
:1013640030BC70474FF46D4340F0BF60CEF20003D1
:1013740040F40031D9607047C37870B47BB9027807
:101384004FF461435109CEF2000302F01F022031F1
:10139400012000FA02F243F8212070BC70474FF498
:1013A4006D44CEF200044578E66884780378F1430E
:1013B400C1F302220F26C2F1040126FA02F205FA51
:1013C40001F122400A4303F1604303F56141120134
:1013D400D3B281F8003300784FF46143410900F03F
:1013E4001F02CEF20003012000FA02F243F821208A
:1013F400D3E700BF21F060414FF46D4321F07F0239
:10140400CEF2000310439860704700BF4FF46D4361
:10141400CEF200031A6919B922EA00001861704774
:1014240010431861704700BF4EF21003CEF2000360
:1014340004281A680CBF42F0040222F004021A6065
:10144400704700BF10B5044600F0A4FC42F25023DC
:10145400C0F60003236010BD70B540F27015C2F2EF
:10146400000540F22C1640F2301440F218230022FA
:10147400C2F20003C2F20006C2F2000440F22010DD
:101484002A600921C2F200002125326025701A70F9
:1014940000F0E6F940F274102021C2F2000000F0DE
:1014A400DFF940F29410C2F20000842100F0D8F970
:1014B400BDE8704000F094BEFEF7C0BF08B53F2001
:1014C40080F31188084B00221A7000F06FFC38B9C1
:1014D400FEF7B0FF002080F31188FEF7ADFFFCE7B4
:1014E40000F08CFCF4E700BF30010020F8B50D4695
:1014F40001391F29044616461F4619D804F10C0069
:1015040031463A4600F012FD2577204600F070F986
:10151400069B4BB109487C21FEF78AFF2268089993
:10152400136820469847F8BD07980028F2D1F5E7DC
:1015340002487221FEF77CFFE0E700BF6422000846
:1015440000F072B92DE9F843154D2C68022C814640
:10155400884616461DD8134F3CB1631E03EB830027
:1015640007EB80018A89B2420DD204EB840307EBB6
:10157400830049464246334600F07EF82868411C01
:101584002960BDE8F88308483B21FEF751FF2C6829
:10159400EBE705483721FEF74BFF2C68DBE700BF7C
:1015A40070010020340100206822000838B5244C62
:1015B40004EB00143F2080F3118825460CE04868B2
:1015C4006060CA7802F07F03CB70002080F311883A
:1015D40000BF3F2080F311886168F1B18A8993B21A
:1015E400002BECD08889421E93B28B81888982B209
:1015F4006AB9C8898B68B8B188810C46002080F329
:1016040011881A681846D36800229847E1E7002039
:1016140080F3118800BF0C46DBE7AB685BB1A868B8
:101624006060A9606168D9E74A686260C87800F0C0
:101634007F02CA70E2E7002080F3118838BD00BF42
:1016440074010020012810B5044603D908488721F5
:10165400FEF7EEFE074B03EB0414606808B10020AC
:1016640010BDA168D1F1010038BF002010BD00BF3A
:1016740070220008740100202DE9F84388460746CB
:1016840091461D4609B1032A3BD823483D21FEF764
:10169400CFFE0424A8B2A042C7F80080BC8139D987
:1016A4000824421F02268442C2F3800109D219B1E0
:1016B4000C240326844204D20834A4B202368442A1
:1016C400FAD3BC814C4520D8C4EB090201259442CD
:1016D400FD813B680CD8B100022500E035465E1858
:1016E400121B1E60681C94421B6886B2F6D9FD81E9
:1016F400002119603D827D82C7F80480BB60BDE88B
:10170400F88304339D42C4D3BFE703484B21FEF75B
:101714008FFED9E70126D5E77822000870B50D467B
:1017240082B00446002949D03F2080F31188E37D2C
:10173400D1B28B421CD9A87818B1E9784A1CD0B22E
:10174400E870013BDAB2217EE275E068914288BF1D
:101754002276E8B1617D236943F82150627D0AB99C
:10176400207D6075617D4B1EDAB26275012204E052
:101774004AB1284600F01CFA0022002080F31188A8
:10178400104602B070BD15486721FEF751FEF0E720
:10179400267F1348134B815D1348E5605A18845D16
:1017A400557841182C4354701C78487844EA000258
:1017B4001A700E4B196841B10122DEE70748019205
:1017C4003E21FEF735FE019AAEE700F0EFFA00285D
:1017D400F2D000F013FB0122CFE700BF84220008FF
:1017E400B022000820010020382300082C0100202A
:1017F40070B5047F0A4E631E1F2B054602D856F8A7
:10180400240018B107483721FEF712FE3F2080F369
:10181400118846F82450002080F3118870BD00BF61
:10182400940100208C22000838B5047F0A4D631E01
:101834001F2B03D855F82410814203D007484B21AD
:10184400FEF7F6FD3F2080F31188002045F82400C0
:10185400002080F3118838BD940100208C220008F8
:1018640010B4B1B10346002403F8014B4118C0433E
:101874000A188B4202F001000BD018B103F8014B97
:101884008B4206D01A4602F8014B5C70531C8B4203
:10189400F8D110BC704700BF2DE9F0474668856851
:1018A400B54286B004460F4604D0A1483921FEF75C
:1018B400BFFDA56839462046A847022808D000285D
:1018C400F7D004280AD06660A66006B0BDE8F087A9
:1018D40020469849A8470028EBD0F2E7A368029570
:1018E400AE428DE8480003D10FE0A668B5420AD0A5
:1018F40091492046B0470128F7D120468D49B04789
:10190400A668B542F4D1009B029D9D42204600F09A
:10191400AF8088499847A768AF4200F0AB80204663
:101924008449A847A668B74200F0A180009B9E4264
:1019340000F00C81019720467E49B847002840F00A
:101944009E800DF1040A4FF00108A26879494AF813
:10195400042F08F10109AA4220464F460CD09047B3
:10196400C8460028F1D0B9F1050F40F389807048CA
:10197400F121FEF75DFD83E0B9F1050F71DC6D46E1
:1019840005EB8905204655F8043D6C4908F001062D
:101994009847B8F1010818D43EB155F8042D6749A9
:1019A40020469047B8F101080FD455F8043C634928
:1019B4002046984708F1FF3855F8086C5F492046DF
:1019C400083DB047B8F10108EFD5009EA660204657
:1019D4005B49B04704287FF476AFA5685549009564
:1019E4002046A847A268B24233D0E8466F46002595
:1019F40047F8042F20464F499047A2680135B24268
:101A0400F6D10099052DA16003DD49488421FEF734
:101A14000FFD06ABA8001E1856F8183CEA0708EBA1
:101A240000060FD5204645499847013D0FD456F886
:101A3400043D07E056F8042D40492046904756F8E7
:101A4400043D013D20463D499847013DF2D5009EA5
:101A5400BDE70DF11808002558F8183D2846A36085
:101A6400DCE73348E621FEF7E3FC6D4688E72046D1
:101A74003149A8474FF000084FF001097FE70127DB
:101A840007F101092C4920460DEB8909A84748466E
:101A94006D4650F8041D8E42B84607F0010317D076
:101AA400B7F101081DD433B150F8042D96420FD07C
:101AB400B8F1010815D450F8043C021F9E42A2F16B
:101AC400040005D052F8041C8E4208F1FF38EFD10F
:101AD40008F1FF38B8F1000FFFF677AF08F10109FC
:101AE4004EE720461449B04701282BD0A66859F880
:101AF400041C8E423B4607F00100A9F1040214D0F5
:101B04007B1EEED428B152F8041D8E420DD0013B49
:101B1400E7D452F8040C111F8642A1F1040204D048
:101B240051F8040C013B8642F1D103F1FF38D1E7AF
:101B340094220008A4230008AC230008A82300086A
:101B4400B023000820460349B047CFE720460249A6
:101B5400A8473AE7A4230008AC23000802463F2024
:101B640080F31188054B19781878904238BF1A70A1
:101B7400002080F311880846704700BF1802002037
:101B840008B503463F2080F31188084A117899422A
:101B940003D8002080F3118808BD137000F006F903
:101BA4000028F6D000F02AF9F3E700BF180200205D
:101BB40038B5837804466BB13F2080F31188E2780E
:101BC400012A08D9E278501EC1B2E170002080F3E6
:101BD400118838BD38BD5D1E002080F31188094886
:101BE40001688D4209D2084B05EB850503EB85009E
:101BF4002146BDE8384000F0A9B904484B21FEF75E
:101C040017FCF0E77001002034010020A022000836
:101C140070B504460D463F2080F31188E67DFEB181
:101C2400AB781BB1E878411CCAB2EA70731ED9B212
:101C3400207EE175E368E560884288BF2176BBB108
:101C4400A27D207D511CCAB2A275A17D88420CD010
:101C5400A17D226942F82130002080F3118870BDF3
:101C640010483B21FEF7E4FBDAE70020A075EFE71C
:101C7400247F0D480D4B015D0D485A18045D411831
:101C840050784978204350701A780A431A70094BE7
:101C940018680028E0D100F089F80028DCD000F0B2
:101CA400ADF8D9E7A8220008B022000820010020DE
:101CB400382300082C0100202DE9F04390E80801A6
:101CC40087B006460C4623B1836813B12C4A90456D
:101CD40004D02C484021FEF7ABFBB36830462146C4
:101CE4009847042803D027484321FEF7A1FBE9467F
:101CF400B768254900973046B847B56845453BD095
:101D04006F46002400E0054647F8045F30461E494C
:101D1400A847B06801344045F5D10099052CB1605D
:101D240003DD18485821FEF783FBE30709EB84071A
:101D34000FD530461549A847013C0FD457F8045D28
:101D440007E057F8045D11493046A84757F8045D89
:101D5400013C30460D49A847013CF2D5DDF800802E
:101D64000B493046C0470428C2D0C6F80480C6F8E0
:101D7400088007B0BDE8F083B7603D460024D4E78F
:101D8400FD1E00087C230008A4230008A8230008E3
:101D9400B02300088160044B41F6FD61C0F60001E8
:101DA40003604160704700BF88230008104B187817
:101DB400C8B11A78B2FA82F0C0F11F01CAB29B18F6
:101DC4000C4958780B78B0FA80F0C0F1200101EB8F
:101DD400C20202F0FF00984208D9074B19788842E2
:101DE40098BF0020704703490B7870470020704764
:101DF4002001002030010020180200202DE9F04FBE
:101E0400204D214E95F800B0DFF88080DFF880A0E7
:101E140083B05FFA8BF98DF807B0374658F8204045
:101E24002870002080F31188204600F0B7F822685B
:101E3400014683465368204698475846FFF7B8FE44
:101E44003F2080F31188307828B99DF807302B7033
:101E540003B0BDE8F08F3978B1FA81F2C2F11F0303
:101E6400D9B278184278B2FA82F3C3F1200000EBB9
:101E7400C10101F0FF008145E7D29AF800209042A9
:101E8400CCD8E2E73001002020010020940100209A
:101E940018020020F8B50446C67880890D46A1686A
:101EA400174606F07F0682B201B1CAB110483B2141
:101EB400FEF7BEFA3F2080F31188A581E078E78120
:101EC400030609D4E1780B4B41F0800203EB0610C2
:101ED400E270816861608460002080F31188F8BD3D
:101EE400002DE3D0012EE1D82388032BE2D8DDE7CF
:101EF400902300087401002003207047032AF8B5DA
:101F0400154604460F461E4601DD012B03D906483B
:101F14003321FEF78DFA00206060E081A0812580E6
:101F2400A760A070E670F8BD98230008D2B210B480
:101F3400541C0023E4B2036043728372C472C37AF4
:101F440041600272037310BC704700BF38B5038A46
:101F5400C289044698B282420D4617D96168A942E3
:101F640002D8A3689D4203D90B483B21FEF760FACF
:101F74003F2080F3118822682A602560208A411C52
:101F84008BB22382002080F3118838BD02483A21A5
:101F9400FEF74EFAE2E700BFB423000870B504462A
:101FA4003F2080F31188E368002B33D0E568E07D9F
:101FB400227D411CCBB29342E37510D8A07D2369E6
:101FC40053F82010E160A07D00B9A275A27D531ED4
:101FD400D9B2A175002080F31188284670BD561C23
:101FE4000020B342E06003D00D485221FEF720FAEE
:101FF400227F0C4C0C4BA05C0C4C1918A25C4E7844
:1020040032404A70002AE5D12018197842780A40F3
:102014001A70DFE702483821FEF70AFAC6E700BF64
:10202400BC230008B022000820010020F42200088C
:10203400202838B504460A4D0AD855F820303BB15B
:102044003F2080F31188002080F31188187E38BD6A
:1020540004486621FEF7ECF955F82430F0E700BF98
:1020640094010020BC23000810B5034C14B1AFF355
:10207400008010BD204610BD0000000008B5084BCC
:1020840004461BB10021AFF3008001E000F00CF81E
:1020940004480068816A01B18847204600F048F886
:1020A40000000000C823000870B5084B084CE01A73
:1020B400841003EB84060025043D1CB1725990473B
:1020C400013CF9E7BDE8704000F090B90C24000829
:1020D4001024000838B50E4D0E4BE81A8510002464
:1020E400AC4205D00B4951F8242090470134F7E75E
:1020F40000F076F90849094A541AA5100024AC42A4
:1021040005D0054B53F8240080470134F7E738BD68
:102114000824000808240008082400080C240008E7
:1021240082180346934202D003F8011BFAE7704772
:10213400FEE700BF30B540F21804C2F2000440F2DA
:10214400B531256885B02846C0F60001FFF77AF955
:10215400002105F120000B460422FFF7CFFEFEF715
:1021640073F9FFF779F94FF480620023019240F28A
:10217400C8020093029320680121C2F200020A23DC
:10218400FFF7B4F905B0BDE83040FFF797B900BFD9
:10219400002100F004B80C4B5B58435004310B4849
:1021A4000B4B42189A42FFF4F6AF0A4A00F003B808
:1021B400002342F8043B084B9A42FFF4F9AFFEF7C0
:1021C40051F8FFF7B7FF7047102400080000002003
:1021D400A8000020AC0000201C020020FFF7FEBF76
:1021E400EFF3108072B606498A68FF231B041A4372
:1021F4008A604A681B029A434A6080F310887047D9
:1022040018ED00E000B53F2080F31188FFF7CEFD04
:10221400002803D180F3118801BC004781B0012359
:102224001B06064A06490EB484B001B40620C04316
:102234000047002080F3118800DF0000011E000821
:102244003722000809B001BC00470000BD1C00088B
:102254009D180008F114000821170008151C000837
:10226400716B000071665F706F6F6C0071665F74F4
:1022740069636B00716D705F696E697400000000C2
:1022840071615F6669666F0071665F616374000007
:102294007168736D5F6469730000000071665F6745
:1022A4006300000071615F6C69666F0000000000EC
:1022B400000000000001010101010101010202020C
:1022C40002020202020303030303030303040404DC
:1022D40004040404040505050505050505060606AC
:1022E4000606060606070707070707070700000094
:1022F400FFFEFDFBF7EFDFBF7FFEFDFBF7EFDFBF68
:102304007FFEFDFBF7EFDFBF7FFEFDFBF7EFDFBFD7
:102314007FFEFDFBF7EFDFBF7FFEFDFBF7EFDFBFC7
:102324007FFEFDFBF7EFDFBF7FFEFDFBF7EFDFBFB7
:102334007F00000000010204081020408001020414
:10234400081020408001020408102040800102048B
:10235400081020408001020408102040800102047B
:10236400081020408001020408102040800102046B
:1023740008102040800000007168736D5F696E6909
:1023840000000000BD1C00089D1800087174655F02
:1023940061726D007174655F63746F720000000098
:1023A4000000000001000000020000000300000023
:1023B400716D705F7075740071615F6765745F0043
:1023C40043000000400000200D0A6C65645F6F66E6
:1023D400660A0D000D0A6C65645F6F6E0A0D0000DD
:1023E400F8B500BFF8BC08BC9E467047F8B500BFFE
:0823F400F8BC08BC9E467047CE
:0423FC0000000000DD
:08240000D8DDFF7F01000000A0
:04240800A90100081E
:04240C00850100083E
:1024100000000000000000000000000001020304B2
:102420000607080900A24A04F0000020000000008E
:102430000102030401020304060708090204060856
:10244000020406080A0C0E1014181C2024282C3034
:10245000000000000000000000000000000000007C
:10246000000000000000000000000000000000006C
:10247000C42300080000000000000000000000006D
:10248000000000000000000000000000000000004C
:10249000000000000000000000000000000000003C
:1024A000000000000000000000000000000000002C
:0824B0000000000040000020C4
:0424B8000000000020
:040000050800219539
:00000001FF
