:020000040800F2
:1000000000800020A12E00084902000871020008AB
:1000100089020008A1020008B902000800000000DF
:10002000000000000000000000000000552F000844
:10003000D102000800000000152F0008F902000896
:10004000ED2E0008ED2E0008ED2E0008ED2E000824
:10005000ED2E0008ED2E0008ED2E0008ED2E000814
:10006000ED2E0008ED2E0008ED2E0008ED2E000804
:10007000ED2E0008ED2E0008ED2E0008ED2E0008F4
:10008000ED2E0008ED2E0008ED2E0008ED2E0008E4
:10009000ED2E0008ED2E0008ED2E0008ED2E0008D4
:1000A000ED2E0008ED2E0008ED2E0008ED2E0008C4
:1000B000ED2E0008ED2E0008ED2E0008ED2E0008B4
:1000C000ED2E0008ED2E0008ED2E0008ED2E0008A4
:1000D000ED2E0008ED2E0008ED2E0008ED2E000894
:1000E000ED2E0008ED2E0008ED2E0008ED2E000884
:1000F000ED2E0008ED2E00080000000000000000BA
:100100000000000000000000ED2E0008ED2E0008A9
:100110000000000000000000ED2E0008ED2E000899
:10012000ED2E0008ED2E0008ED2E0008ED2E000843
:10013000ED2E0008ED2E0008ED2E0008ED2E000833
:10014000ED2E00080000000000000000000000008C
:10015000000000000000000000000000000000009F
:100160000000000000000000ED2E0008ED2E000849
:10017000ED2E000800000000ED2E00080000000039
:04018000ED2E000858
:1001840010B5054C237833B9044810B10448AFF3D3
:1001940000800121217010BDAC000020000000008F
:1001A4001831000808B5064B1BB106480649AFF3E1
:1001B40000800648016811B1054A02B1904708BDA4
:1001C4000000000018310008B0000020A800002042
:1001D40000000000154B002B08BF134B9D46A3F5F0
:1001E400803A00218B460F461348144A121A02F033
:1001F4004BFE0F4B002B00D098470E4B002B00D02A
:1002040098470020002104460D4600200C49002296
:10021400002302F0DDFD02F011FE2046294600F025
:100224005FFA02F0DFFD00BF0000080000000000DC
:100234000000000000000000AC00002020020020AC
:10024400152E000898B500AF7446234640F24920A5
:10025400C0F60000194600F09FFC234640F24920F6
:10026400C0F60000194600F003FD98BD80B500AF4C
:10027400734640F27120C0F60000194600F08CFC71
:10028400FEE700BF80B500AF734640F28920C0F698
:100294000000194600F080FCFEE700BF80B500AF07
:1002A400734640F2A120C0F60000194600F074FC29
:1002B400FEE700BF80B500AF734640F2B920C0F638
:1002C4000000194600F068FCFEE700BF98B500AFD7
:1002D4007446234640F2D120C0F60000194600F0CF
:1002E4005BFC234640F2D120C0F60000194600F022
:1002F400BFFC98BD98B500AF7446234640F2F92080
:10030400C0F60000194600F047FC4FF0000001F071
:10031400E7FE234640F2F920C0F60000194600F03B
:10032400A7FC98BD4FF46D42CEF200024FF4805307
:10033400D2F88810C4F2020341F4700010B4C2F879
:1003440088001C6844F001021A6059684CF20C00E1
:10035400CFF67F00084058601C6824F0847222F4B1
:1003640080311960186820F480241C605A6822F4D3
:10037400FE015960D86A20F00F04DC621C6B4FF652
:10038400CC424FF40050CFF6007283B0C4F20200A6
:1003940022401A63002112229960009101910260A7
:1003A40058685860596841F480625A60586820F46B
:1003B4007C1159605A6842F460105860196841F021
:1003C40080721A6018684FF480528101C4F20202EC
:1003D400F8D5536823F003015160506840F00203DC
:1003E4005360516801F00C000828FAD14FF46D43B2
:1003F400CEF200034FF000629A6003B010BC704765
:100404004FF48053C4F202035A6802F00C00082827
:1004140010D04FF49051C0F27A014FF48052C4F2DC
:10042400020212485368C3F30312835C21FA03F1F6
:10043400016170475A685868C2F383418A1CC0033B
:1004440006D44FF41063C0F23D0303FB02F1E4E76A
:10045400D86A4FF4905300F00F01481CC0F27A039D
:10046400B3FBF0F102FB01F1D7E700BF0400002069
:1004740090B583B000AF744678603960234640F28B
:100484007540C0F60000194600F086FB234640F292
:100494007540C0F60000194600F0EAFB07F10C07AE
:1004A400BD4690BD98B500AF7446234640F2A940BE
:1004B400C0F60000194600F06FFB00F02BFB23464A
:1004C40040F2A940C0F60000194600F0D1FB98BDE7
:1004D40098B500AF7446234640F2D540C0F60000FC
:1004E400194600F059FB234640F2D540C0F60000FF
:1004F400194600F0BDFB98BD98B500AF744623467D
:1005040040F2FD40C0F60000194600F045FB2346CA
:1005140040F2FD40C0F60000194600F0A9FB98BD6A
:10052400B0B582B000AF744678603960234640F2BB
:100534002550C0F60000194600F02EFB7B687A684F
:100544009A627B6803F1200318464FF032014FF0A2
:10055400320202F0F3FA7A6840F28953C0F60003DB
:1005640093604FF00405234640F22550C0F6000086
:10057400194600F07DFB2B46184607F10807BD46D7
:10058400B0BD00BFB0B584B000AF744678603960C8
:10059400234640F28950C0F60000194600F0FCFAE8
:1005A4003B681B88012B02D0042B06D00FE000F01F
:1005B4009DFA4FF00103FB7313E07A6840F2056380
:1005C400C0F6000393604FF00403FB7309E07A68FC
:1005D40042F6C533C0F6000393604FF00003FB738B
:1005E40000BFFD7B234640F28950C0F60000194647
:1005F40000F03EFB2B46184607F11007BD46B0BD80
:10060400B0B584B000AF744678603960234640F2D8
:100614000560C0F60000194600F0BEFA3B681B886E
:10062400012B02D0042B06D00FE000F04BFA4FF060
:100634000103FB7313E07A6840F28953C0F60003A8
:1006440093604FF00403FB7309E07A6842F6C53304
:10065400C0F6000393604FF00003FB7300BFFD7B03
:10066400234640F20560C0F60000194600F000FB86
:100674002B46184607F11007BD46B0BD90B583B0B0
:1006840000AF7446234640F28160C0F6000019466C
:1006940000F082FA40F21803C2F200031B687B6088
:1006A4007B68184640F22551C0F6000101F0CAFBF0
:1006B4007B6803F1200318464FF000014FF0040259
:1006C4004FF0000302F08CFA234640F28160C0F63A
:1006D4000000194600F0CCFA07F10C07BD4690BDA6
:1006E400B0B584B004AF7446234640F2E560C0F66A
:1006F4000000194600F050FA00F02CF8FFF7BEFF96
:1007040001F04AFC40F21803C2F200031B684FF0E8
:10071400000200924FF4806201924FF000020292B4
:1007240018464FF0010140F2F802C2F200024FF005
:100734000A0301F0B7FB01F009FC0546234640F229
:10074400E560C0F60000194600F092FA2B46184600
:10075400BD46B0BD90B589B000AF7446234640F2A3
:100764005970C0F60000194600F016FA4FF4003034
:100774004FF0010100F0A8FE4FF400304FF00101EA
:1007840000F086FE4FF090404FF002014FF0070258
:1007940001F0D0FA4FF090404FF003014FF0070200
:1007A40001F0C8FA4FF00C03BB614FF002033B7732
:1007B4004FF00003BB774FF00003FB774FF00303C8
:1007C4007B7707F118034FF09040194601F0BEF90A
:1007D4004FF4E1333B604FF000037B604FF00003C4
:1007E400BB604FF00003FB604FF000037B614FF0F0
:1007F4000C033B613B464FF48840C4F200001946A9
:1008040000F012FF4FF48840C4F200004FF00101E1
:1008140000F080FF234640F25970C0F600001946EC
:1008240000F026FA07F12407BD4690BDB0B588B0A4
:1008340000AF7546F860B9607A602B4640F6310027
:10084400C0F60000194600F0A7F94FF00003BB61A1
:10085400BB687B617B68002B05D07B694FF000028D
:100864001A70BC6858E0FB68002B0DD17B694FF00F
:1008740030021A707B6903F101037B617B694FF0DD
:1008840000021A70BC6847E0FB68002B0BDA7B6936
:100894004FF02D021A707B6903F101037B61FB6841
:1008A400C3F10003FB6042F21073FB612CE0FA68B1
:1008B400FB6992FBF3F33B613B69002B02D1BB69FB
:1008C400002B14D03B69DBB203F13003DAB27B694D
:1008D4001A707B6903F101037B613B69FA6902FBCE
:1008E40003F3FA68D31AFB604FF00103BB61FA69A2
:1008F40046F26763C6F2666383FB02134FEAA30101
:100904004FEAE273CB1AFB61FB69002BCFDC7B69F6
:100914004FF000021A70BC682B4640F63100C0F656
:100924000000194600F0A4F92346184607F12007F1
:10093400BD46B0BD0EB490B58AB000AF74467860C1
:10094400234640F63910C0F60000194600F024F999
:1009540007F13803FB60A0E07B6B1B785C2B23D191
:100964007B6B03F101037B637B6B1B786E2B0BD0DA
:10097400722B13D178684FF00D0100F05BFF7B6B95
:1009840003F101037B630EE078684FF00A0100F085
:1009940051FF7B6B03F101037B6304E07B6B03F189
:1009A40001037B6370E06FE07B6B1B78252B60D1C8
:1009B4007B6B03F101037B637B6B1B78642B24D07B
:1009C400732B50D1FB6803F10402FA601B687B624D
:1009D40012E07B6A1B787868194600F02BFF00BF91
:1009E40078684FF0400101F017F80346002BF7D068
:1009F4007B6A03F101037B627B6A1B78002BE8D1DD
:100A04007B6B03F101037B6332E0FB6803F10402B7
:100A1400FA601B683B6207F11003386A19464FF00D
:100A24000A02FFF703FF07F110037B6212E07B6AFF
:100A34001B787868194600F0FDFE00BF78684FF017
:100A4400400100F0E9FF0346002BF7D07B6A03F175
:100A540001037B627B6A1B78002BE8D17B6B03F17B
:100A640001037B6304E07B6B03F101037B630BE015
:100A74000AE07B6B1B787A6B02F101027A63786877
:100A8400194600F0D7FEFFE700BF78684FF0400139
:100A940000F0C2FF0346002BF7D07B6B1B78002BC2
:100AA4007FF45AAF234640F63910C0F600001946C9
:100AB40000F0DEF8184607F12807BD46BDE890406F
:100AC40003B0704798B500AF7446234640F6C9207A
:100AD400C0F60000194600F05FF8234640F6C9202E
:100AE400C0F60000194600F0C3F898BD98B500AFF1
:100AF4007446234640F6F120C0F60000194600F083
:100B04004BF8234640F6F120C0F60000194600F0E9
:100B1400AFF898BD90B583B000AF7446234640F655
:100B24001930C0F60000194600F036F84FF0FF0304
:100B34003B714FF000037B714FF00003BB714FF02A
:100B44000103FB7107F10403184601F015F94FF096
:100B5400040001F069F94EF21003CEF200034FF4E1
:100B64004442C0F209025A604EF21003CEF200036E
:100B74004EF21002CEF20002126842F003021A6032
:100B8400234640F61930C0F60000194600F070F80C
:100B940007F10C07BD4690BD90B589B000AF7860F1
:100BA400396042F65C73C0F6000307F108040FCB0A
:100BB40007C4238004F102044FEA134323704FF067
:100BC4000003FB612AE07A68FB694FEA830322FA97
:100BD40003F303F00F03BB61BB69092B0DD8FB6959
:100BE400C3F11103BA69D2B202F13002D2B207F1F1
:100BF4002001CB1803F8182C0CE0FB69C3F1110396
:100C0400BA69D2B202F13702D2B207F12001CB188D
:100C140003F8182CFB6903F10103FB61FB69072B43
:100C2400D1D94FF00003FB611BE007F10802FB6917
:100C3400D3181B784FF48840C4F20000194600F022
:100C4400F9FD00BF4FF48840C4F200004FF04001AA
:100C540000F0E2FE0346002BF4D0FB6903F101032C
:100C6400FB61FB690F2BE0D907F12407BD4690BD5A
:100C740090B589B000AF7860396042F67073C0F601
:100C8400000307F108040FCB07C4238004F1020416
:100C94004FEA134323704FF00003FB612AE07A68A4
:100CA400FB694FEA830322FA03F303F00F03BB61EA
:100CB400BB69092B0DD8FB69C3F11103BA69D2B220
:100CC40002F13002D2B207F12001CB1803F8182C3C
:100CD4000CE0FB69C3F11103BA69D2B202F1370225
:100CE400D2B207F12001CB1803F8182CFB6903F1E9
:100CF4000103FB61FB69072BD1D94FF00003FB61B2
:100D04001BE007F10802FB69D3181B784FF48840F5
:100D1400C4F20000194600F08DFD00BF4FF4884076
:100D2400C4F200004FF0400100F076FE0346002BB1
:100D3400F4D0FB6903F10103FB61FB690F2BE0D9DC
:100D440007F12407BD4690BDB0B584B000AF74462A
:100D54007860234640F64D50C0F600001946FFF770
:100D64001BFF40F22013C2F200031B68002B08D1C2
:100D740040F22013C2F2000340F22022C2F2000229
:100D84001A6040F22013C2F200031B68FB6040F2B9
:100D94002013C2F200031A687B68D21840F22013B1
:100DA400C2F200031A60FD68234640F64D50C0F6B7
:100DB40000001946FFF75CFF2B46184607F11007A1
:100DC400BD46B0BDB0B582B000AF7446786039603E
:100DD400234640F6C950C0F600001946FFF7DCFE72
:100DE4004FF0FF35234640F6C950C0F600001946BF
:100DF400FFF73EFF2B46184607F10807BD46B0BD76
:100E0400B0B582B000AF74467860234640F6056002
:100E1400C0F600001946FFF7BFFE4FF0FF3523462A
:100E240040F60560C0F600001946FFF721FF2B4687
:100E3400184607F10807BD46B0BD00BFB0B582B083
:100E440000AF744678603960234640F64160C0F6CE
:100E540000001946FFF7A0FE3B684FF400525A60A9
:100E64004FF00005234640F64160C0F600001946E5
:100E7400FFF7FEFE2B46184607F10807BD46B0BD36
:100E8400B0B582B000AF74467860234640F6856002
:100E9400C0F600001946FFF77FFE4FF00105234618
:100EA40040F68560C0F600001946FFF7E1FE2B46C8
:100EB400184607F10807BD46B0BD00BFB0B584B001
:100EC40000AF7446F860B9607A60234640F6C160AA
:100ED400C0F600001946FFF75FFE4FF000052346F9
:100EE40040F6C160C0F600001946FFF7C1FE2B466C
:100EF400184607F11007BD46B0BD00BFB0B584B0B9
:100F040000AF7446F860B9607A60234640F6017019
:100F1400C0F600001946FFF73FFE4FF000052346D8
:100F240040F60170C0F600001946FFF7A1FE2B46FB
:100F3400184607F11007BD46B0BD00BF80B500AF2D
:100F4400734640F64170C0F600001946FFF724FED0
:100F5400FEE700BFB0B586B000AF7446F860B96074
:100F64007A60234640F65970C0F600001946FFF730
:100F740013FE4FF00003FB821CE0BB681B78BA68C9
:100F840002F10102BA604FF48840C4F2000019462D
:100F940000F050FC00BF4FF48840C4F200004FF052
:100FA400400100F039FD0346002BF4D0FB8A03F125
:100FB4000103FB82FA8A7B689A42DEDB7D68234662
:100FC40040F65970C0F600001946FFF751FE2B4653
:100FD400184607F11807BD46B0BD00BF2C31000804
:100FE40000000020A8000020AC0000202002002007
:100FF4004FF48053C4F202031A6842F001001860EF
:10100400596801F47F025A60186820F0847121F451
:1010140080321A60186820F4802119605A6822F41A
:10102400FE005860D96A21F00F02DA62186B20F0D2
:10103400F02121F0730200201A639860704700BF0A
:1010440041F20203C4F2020300221A7018707047BE
:1010540082B04FF4805200230193C4F2020210685C
:1010640083030CD5019A511C0191019B4FF48053C9
:10107400C4F202031868C0F3404002B070470199FB
:101084004B1C01930198B0F5A06FE8D1EEE700BFC7
:101094004FF48053C4F202031A6822F0F80141EAC3
:1010A400C0001860704700BF0023C4F242231860D8
:1010B400704700BF4FF48053C4F202031A6A22F04F
:1010C400010119621A6A22F0040119621A6A1043B2
:1010D400186270474FF48053C4F202031A6A22F074
:1010E400180119621A6A1043186270474FF490632A
:1010F400C4F24223186070474FF48053C4F20203D1
:101104005A6822F474125A605A68104301435960B1
:10111400704700BF6023C4F242231860704700BFC9
:101124004FF48053C4F20203DA6A22F00F01084339
:10113400D86270474C23C4F242231860704700BF42
:1011440041F20703C4F20203187070474FF480534E
:10115400C4F202035A6822F003010843586070473E
:101164004FF48053C4F20203586800F00C00704737
:101174004FF48053C4F202035A6822F0F00108438A
:10118400586070474FF48053C4F202035A6822F443
:10119400E0610843586070474FF48053C4F202037F
:1011A4005A6822F4605141EAC0005860704700BF99
:1011B4004FF48053C4F202035A6822F44041596048
:1011C4005A681043586070474FF48053C4F20203C6
:1011D4005A6822F0784159605A6810435860704741
:1011E4004FF48053C4F202031A6B22F040011963D6
:1011F4001A6B104318637047030F4FF48053C4F203
:1012040002034FF480511A6BC4F202010CBF22F0A6
:10121400100222F020021A630B6B18430863704714
:10122400030F022B1DD0032B12D0012B07D04FF438
:101234008051C4F202010A6B1043086370474FF4F3
:101244008051C4F202010A6B22F003030B63EEE740
:101254004FF48051C4F202010A6B22F440230B6361
:10126400E5E74FF48051C4F202010A6B22F44033E3
:101274000B63DCE7D823C4F242231860704700BF35
:101284004FF48053C4F2020370B45A6802F00C01A4
:10129400042902D0082900F0B5804FF49051C0F21F
:1012A4007A0101604FF48053C4F202036D4A5D6811
:1012B400C5F30314165D21FA06F444605D68C5F3B2
:1012C4000226955D24FA05F585605E68C6F3C2269C
:1012D400965D24FA06F4C4605E68C6F381369619F6
:1012E400367CB4FBF6F606615E68C6F3C3669219F3
:1012F400127DB1FBF2F242611B6B5A064FF480532C
:1013040054BF48F212024FF40042C4F20203826155
:101314001B6BDA0658BF4FF490534FF48052C4F25B
:1013240002025ABFC0F27A03C361C161136B9A0609
:1013340058BF4FF490524FF4805358BFC0F27A0212
:10134400C4F2020354BF026201621A6B92072AD1EB
:1013540044624FF48053C4F202031A6B12F4403F08
:1013640036D185624FF48053C4F202031A6B12F42F
:10137400402F45D01A6B02F44022B2F5802F62D080
:10138400196B01F44022B2F5002F66D01B6B03F4F5
:101394004021B1F5402F04D14FF49052C0F27A02AB
:1013A400C26270BC70471A6B02F00302012A3AD081
:1013B4001A6B02F00302022A47D01B6B03F00302EC
:1013C400032AC6D14FF49053C0F27A034362C0E7B4
:1013D4001A6B02F44032B2F5803F22D01A6B02F449
:1013E4004032B2F5003F34D01B6B03F44032B2F507
:1013F400403FB7D14FF49053C0F27A038362B1E710
:10140400C562CEE75D685C68C5F38346B21CE10340
:101414000BD44FF41066C0F23D0606FB02F10160E6
:1014240040E781629EE7416293E7D96A4FF49053A3
:1014340001F00F056C1CC0F27A03B3FBF4F102FB5C
:1014440001F101602EE7C162ABE74FF40042426252
:101454007FE74FF40042826284E74FF40043C362A3
:101464009FE700BF1C0000204FF48053C4F2020326
:101474001A6A10431862704740F23C43C4F2422394
:10148400186070474FF48863C4F2422318607047B1
:101494004FF48053C4F202035A6919B922EA0000D6
:1014A4005861704710435861704700BF4FF4805330
:1014B400C4F202039A6919B922EA000098617047DC
:1014C40010439861704700BF4FF48053C4F2020385
:1014D400DA6919B922EA0000D86170471043D8616B
:1014E400704700BF4FF48053C4F202039A6A19B9DB
:1014F40022EA00009862704710439862704700BF68
:101504004FF48053C4F20203DA6819B922EA0000E6
:10151400D86070471043D860704700BF4FF48053C1
:10152400C4F202031A6919B922EA0000186170476B
:1015340010431861704700BF41F20903C4F202036B
:101544001A7819B922EA000018707047104318700D
:10155400704700BF43090BD14FF48052C4F202021A
:10156400116800F01F0021FA00F303F00100704736
:101574004FF48051C4F20201012B0CBF096A496A7D
:10158400EFE700BF4FF48053C4F202035A6A42F0FB
:1015940080705862704700BF4FF48053C4F2020356
:1015A400996808420CBF00200120704741F20A03E9
:1015B400C4F202031870704708B54FF46053C4F2C4
:1015C4000103984218D04FF48841C4F200018842C4
:1015D4001ED04FF49042C4F20002904200D008BDE5
:1015E40001214FF48020FFF799FF4FF48020002160
:1015F400BDE80840FFF792BF01214FF48040FFF798
:101604007FFF4FF480400021BDE80840FFF778BF1A
:1016140001214FF40030FFF781FF4FF40030002127
:10162400BDE80840FFF77ABFF0B507688E68044646
:101634000D4627F00107C8682A6949686B69276065
:10164400676827F440573E4366602668084326F4DB
:10165400B05121F00C06024332432260A06820F40A
:1016640040718DB00B43A3606846FFF709FE4FF449
:101674006052C4F20102944227D04FF48840C4F26D
:10168400000084420CBF0A990B9923682A68180445
:1016940016D54800B0FBF2F302FB1301B1EB520F75
:1016A400226828BF0133120406D54FF6F070C3F345
:1016B4004201184041EA00039AB2A2810DB0F0BD84
:1016C400B1FBF2F302FB1311E8E70999DDE700BF70
:1016D40000234FF4165280E80C000C228360C36090
:1016E40002614361704700BF30B491E828008C6800
:1016F4004268C9682B43234322F470620B431343AB
:10170400436030BC704700BF0023036043608360C4
:10171400C3607047036819B923F001010160704781
:1017240043F001020260704703681AB923EA010119
:101734000160704719430160704700BF036819B91D
:1017440023F400410160704743F400420260704793
:10175400836819B923F400618160704743F400621F
:1017640082607047436819B923F4002141607047CF
:1017740043F4002242607047436819B923F480217E
:101784004160704743F480224260704743681AB94D
:1017940023EA01014160704719434160704700BF6B
:1017A400436819B923F400414160704743F400428F
:1017B40042607047436819B923F4000141607047DF
:1017C40043F4000242607047436903F07F42426180
:1017D4004369194341617047038A03F47F420282DB
:1017E400038A9AB211430182704700BF036819B992
:1017F40023F002010160704743F002020260704767
:10180400836823F4401282608368194381607047BF
:10181400436819B923F480114160704743F480127E
:1018240042607047436823F4C0024260436819432E
:1018340041607047C905CA0D02857047808CC10597
:10184400C80D7047436823F07F424260436843EA0F
:1018540001614160704700BF036819B923F4005166
:101864000160704743F4005202607047036823F438
:10187400006202600368194301607047436823F003
:10188400100242604368194341607047436823F083
:10189400200242604368194341607047436819B9A4
:1018A40023F480414160704743F4804242607047B2
:1018B400836819B923F008018160704743F0080276
:1018C40082607047038ADAB20282038A9AB242EAD9
:1018D40001210182704700BF836819B923F02001F8
:1018E4008160704743F0200282607047836819B9B1
:1018F40023F010018160704743F01002826070474A
:10190400836823F460228260836843EA41418160F2
:10191400704700BF436923F07F424261436943EA51
:1019240001614161704700BF836823F00402826053
:101934008368194381607047836819B923F00201F1
:101944008160704743F0020282607047836819B96E
:1019540023F480418160704743F480428260704781
:10196400836823F40042826083681943816070476E
:10197400036823F078720260036843EA415101600E
:10198400704700BF036823F4F8120260036843EA57
:1019940001410160704700BF83681AB923EA01015D
:1019A4008160704719438160704700BF836823F4E6
:1019B400005282608368194381607047CBB2C1F3DF
:1019C400072110B40124022904FA03F30DD00329DA
:1019D40008BF08302AB9026822EA0301016010BC7A
:1019E4007047026813430360F9E70430F2E700BF6D
:1019F400038B22B99AB222EA010101837047194389
:101A04008BB20383704700BF836823F480528260E3
:101A14008368194381607047C36919420CBF002071
:101A2400012070470162704710B4C1F307230124F9
:101A3400CAB2A34204FA02F212D0022B0CBF4368CA
:101A440083681340C0694BB1090C012303FA01F206
:101A540002420CBF0020012010BC70471846FBE76F
:101A640003681340EEE700BF090C012303FA01F2F7
:101A740002627047B0F1904F08B52AD04FF48063EA
:101A8400C4F60003984230D04FF40061C4F600015C
:101A9400884236D04FF44062C4F6000290423CD0F3
:101AA4004FF48053C4F60003984242D04FF4A0513F
:101AB400C4F60001884200D008BD01214FF4800023
:101AC400FFF710FD4FF480000021BDE80840FFF748
:101AD40009BD01214FF40030FFF704FD4FF400303D
:101AE4000021BDE80840FFF7FDBC01214FF4802030
:101AF400FFF7F8FC4FF480200021BDE80840FFF711
:101B0400F1BC01214FF40020FFF7ECFC4FF400205E
:101B14000021BDE80840FFF7E5BC01214FF4801027
:101B2400FFF7E0FC4FF480100021BDE80840FFF708
:101B3400D9BC01214FF40010FFF7D4FC4FF400107E
:101B44000021BDE80840FFF7CDBC00BF00222DE90D
:101B5400F00F13460D6801264FF0030C0BE0013320
:101B640006FA03F404EA05070232A74231D001332E
:101B74000232102B51D006FA03F404EA0507A742F7
:101B8400EDD10C7904F1FF38B8F1010F48D90CFA02
:101B940002F76FEA0708076891F8079008EA070751
:101BA4000760076804FA02F43C430460C4680CFA52
:101BB40002F724EA0704C460C76809FA02F43C4344
:101BC4000133C46006FA03F404EA05070232A742AB
:101BD400CDD10C7904F1FF38B8F1010F46D90CFAD4
:101BE40002F76FEA0708076891F8079008EA070701
:101BF4000760076804FA02F43C430460C4680CFA02
:101C040002F724EA0704C460C76809FA02F401333E
:101C14003C430232102BC460ADD1BDE8F00F7047D5
:101C2400D0F808B091F8059091F806A00CFA02F8E3
:101C34006FEA080808EA0B0BC0F808B0D0F808B03F
:101C440009FA02F949EA0B09C0F80890B0F80490BF
:101C54001FFA89F929EA07078780B0F804900AFA7D
:101C640003F747EA0907BFB2878094E7D0F808B0C2
:101C740091F8059091F806A00CFA02F86FEA0808AA
:101C840008EA0B0BC0F808B0D0F808B009FA02F95A
:101C940049EA0B09C0F80890B0F804901FFA89F9D2
:101CA40029EA07078780B0F804900AFA03F747EA9D
:101CB4000907BFB2878096E700234FF6FF7202211F
:101CC4000260037141718371C371704782B04FF434
:101CD40080330193019A41EA02030193019AC2619C
:101CE400C1610199C161C3690193C069019002B0E6
:101CF400704700BF038A19420CBF002001207047BF
:101D0400008A80B2704700BF838A19420CBF00204A
:101D140001207047808A80B2704700BF816170479C
:101D2400018570470AB9018570478161704700BF1A
:101D340081827047CB08083301F0070130B4890071
:101D440050F823500F2404FA01F425EA040440F85F
:101D5400234050F8234002FA01F2144340F8234090
:101D640030BC70474FF46D4340F0BF60CEF20003C7
:101D740040F40031D9607047C37870B47BB90278FD
:101D84004FF461435109CEF2000302F01F022031E7
:101D9400012000FA02F243F8212070BC70474FF48E
:101DA4006D44CEF200044578E66884780378F14304
:101DB400C1F302220F26C2F1040126FA02F205FA47
:101DC40001F122400A4303F1604303F5614112012A
:101DD400D3B281F8003300784FF46143410900F035
:101DE4001F02CEF20003012000FA02F243F8212080
:101DF400D3E700BF21F060414FF46D4321F07F022F
:101E0400CEF2000310439860704700BF4FF46D4357
:101E1400CEF200031A6919B922EA0000186170476A
:101E240010431861704700BF4EF21003CEF2000356
:101E340004281A680CBF42F0040222F004021A605B
:101E4400704700BFF8B541F64964C0F60004054682
:101E54000F46204671467646FEF79EFE28463946D2
:101E640000F0BEFD42F68473C0F6000320463146FE
:101E74002B60BDE8F840FEF7FBBE00BF70B541F62D
:101E84008164C0F600047146064620467546FEF796
:101E940083FE304600F07CFA20462946BDE87040B7
:101EA400FEF7E6BE2DE9F84F0E4604467146194882
:101EB400DDF82880DDF82CB00C9F994675469246D3
:101EC400FEF76AFE731E1F2B1FD804F10C00514647
:101ED4004A4600F0ABFE2677204600F083FAB8F1BC
:101EE400000F0ED00C487C21FEF7C2FA226820466F
:101EF40039461368984707482946BDE8F84FFEF766
:101F0400B7BEBBF1000FEDD1F0E703487221FEF735
:101F1400AFFADAE7A91E0008982F000810B509489F
:101F240071467446FEF738FE074B00221A7000F023
:101F3400CFFD08B100F070FD02482146BDE8104015
:101F4400FEF796BE211F00083401002008B508489A
:101F54007146FEF721FE3F2080F31188FFF7DEFF74
:101F6400FEF7A0FA002080F31188FEF7B1FAFCE72F
:101F7400511F000838B541F67974C0F600042046B4
:101F840071467546FEF708FEFEF7B6FA2046294666
:101F9400BDE83840FEF76CBE2DE9F04141F69D7472
:101FA400C0F600047146204640F27416F046C2F2B0
:101FB4000006FEF7F1FD40F2301740F2341540F20E
:101FC4001C230022C2F20003C2F20007C2F2000581
:101FD40040F2241032600921C2F2000021263A6046
:101FE4002E701A7000F0ACF940F278102021C2F281
:101FF400000000F0A5F940F298108421C2F200001C
:1020040000F09EF900F072FF20464146BDE8F04121
:10201400FEF72EBE2DE9F0471A4D824689461A482E
:10202400714676461746FEF7B7FD2C68022C22D877
:10203400DFF85C803CB1631E03EB830008EB800196
:102044008A89BA4211D204EB840308EB8300514617
:102054004A463B4600F09CF829680B484A1C314626
:102064002A60BDE8F047FEF703BE08483B21FEF7AF
:10207400FFF92C68E7E705483721FEF7F9F92C68E2
:10208400D6E700BF74010020192000089C2F000827
:102094003801002038B5714605460E487446FEF7EF
:1020A4007BFD012D03D90C488721FEF7E1F90B4B89
:1020B40003EB0510416831B1002506482146FEF7BF
:1020C400D7FD284638BD8268D2F1010538BF002506
:1020D400F3E700BF99200008A42F0008780100202E
:1020E40070B57146044628487646FEF755FD274BE1
:1020F40003EB04143F2080F3118825460CE0486864
:102104006060CA7802F07F03CB70002080F31188EE
:1021140000BF3F2080F311886168F1B18B8998B2C8
:102124000028ECD08A89531E98B288818A8993B298
:102134006BB9C8898B68B8B188810C46002080F3DC
:1021440011881A681846D36800229847E1E70020EE
:1021540080F3118800BF0C46DBE7A86858B1AA6871
:102164006260A9606168D9E74A686260C87800F073
:102174007F02CA70E2E7002080F3118802483146EA
:10218400BDE87040FEF774BDE5200008780100202A
:102194002DE9F8430F46814671462E48F04616460F
:1021A4001D46FEF7F9FC0FB1032E48D82A483D21FD
:1021B400FEF75EF90424A8B2A042C9F80070A9F899
:1021C4000C4045D90824421F02258442C2F38001F1
:1021D40009D219B10C240325844204D20834A4B2D0
:1021E40002358442FAD3A9F80C40B4422BD8321BEE
:1021F40001239442A9F80E30D9F800300DD8A90073
:10220400022500E035465E18121B1E60681C9442CD
:102214001B6886B2F6D9A9F80E50B9F80E200D48FD
:10222400002119604146A9F81020A9F81220C9F824
:102234000470C9F80830BDE8F843FEF719BD2B1D3A
:102244009D42B7D3B2E704484B21FEF711F9CEE71C
:102254000125CAE795210008AC2F0008F8B50D4602
:1022640004467146304876461746FEF795FC002D25
:102274004CD03F2080F31188E37DFAB293421CD9FD
:10228400A87818B1E9784A1CD0B2E870013BDAB2F8
:10229400217EE275E068914288BF227600B3617DB9
:1022A400236943F82150627D0AB9207D6075617D00
:1022B4004B1EDAB26275012404E067B1284600F0CF
:1022C40079FA0024002080F3118817483146FEF77C
:1022D400CFFC2046F8BD15486721FEF7C9F8EDE7A5
:1022E400277F1348134BC15D1348E5605A18C45D3A
:1022F400557841182C43547018784A7840EA0204FF
:102304001C700E4B196831B10124DBE707483E21EC
:10231400FEF7AEF8ADE700F0DBFB0028F4D000F0E8
:102324007BFB0124CEE700BF61220008B82F000820
:10233400E42F0008240100206C3000083001002044
:10234400F8B50D460646714610487746FEF724FC5C
:10235400B5B13346002403F8014B7519F643A819A7
:10236400AB4200F001060BD01EB103F8014BAB42A7
:1023740006D01A4602F8014B5C70531CAB42F8D1EC
:1023840002483946BDE8F840FEF772BC4523000810
:10239400F8B5074671461048104E7546FEF7FCFB2B
:1023A4003C7F631E1F2B03D856F82400B84203D089
:1023B4000B484B21FEF75CF83F2080F31188002185
:1023C40046F82410002080F3118803482946BDE80C
:1023D400F840FEF74DBC00BF95230008980100208B
:1023E400C02F0008F8B5064671460F480F4F7546D2
:1023F400FEF7D2FB347F631E1F2B02D857F824004C
:1024040018B10B483721FEF733F83F2080F31188C9
:1024140047F82460002080F3118803482946BDE86A
:10242400F840FEF725BC00BFE9230008980100200E
:10243400C02F00082DE9F84F8A46044671465748D4
:102444007746FEF7A9FBDAF80030DAF808909945E8
:10245400204642D052499847A668B14539D0204613
:102464004F49C847A068B04236D0DAF800209042FD
:1024740000F08D80CAF8046020464949A568B04739
:1024840000282FD10AF1040B4FF00108A668444933
:102494004BF8046FA3684B45204608F101060AD0A7
:1024A4009847B0460028F1D0052E1CDD3D48F121A7
:1024B400FDF7DEFF17E0052E06DC38483946FEF747
:1024C400D7FB4046BDE8F88F3648E621FDF7D0FF3C
:1024D400F3E74FF00008F0E720463349C8474FF0D0
:1024E4000008EAE7012630492046C847711C0AEB78
:1024F400810A5046B04650F8042DAA4206F0010362
:1025040017D0B6F1010817D433B150F8041DA9420D
:102514000FD0B8F101080FD450F8043C021FAB42AD
:10252400A2F1040005D052F8041CA94208F1FF38B6
:10253400EFD108F1FF38C0E720461B49A84701281E
:1025440021D0A5685AF8041CA942334606F00100BC
:10255400AAF1040214D0731EEED428B152F8041D5B
:10256400A9420DD0013BE7D452F8041C101FA94224
:10257400A0F1040204D050F8041C013BA942F1D19B
:1025840003F1FF3899E720460549A847D9E72046D3
:102594000549C8474FF0FF388FE700BF39240008CA
:1025A400D8300008C82F0008E03000082DE9F043B7
:1025B400044687B00F4658487146F046FEF7ECFAD9
:1025C4006668A568B54204D054483921FDF750FF28
:1025D400A56839462046A84702280CD00028F7D021
:1025E40004280ED06660A6604B484146FEF740FBC7
:1025F40007B0BDE8F08320464949A8470028E7D042
:10260400EEE7A3680295AE428DE8480003D10DE0E1
:10261400A668B5420AD043492046B0470128F7D1FD
:1026240020463F49B047A668B542F4D120466946E2
:10263400FFF700FF071E28DB00AA7D1C02EB8505BF
:10264400204655F8043D384907F0010998477E1E95
:10265400DFB1B9F1000F07D055F8042D32492046F7
:10266400013E9047731C10D055F8047C2E49204637
:10267400B84755F8083C2C49771E2046A5F10409B3
:102684009847083D023E002FEED1009EA6602046EA
:102694002649B0470428A5D1A568214900952046BC
:1026A400A847A268B24232D06F46002547F8042FEB
:1026B40020461B499047A2680135B242F6D10099E1
:1026C400052DA16003DD15488421FDF7D1FEA80086
:1026D40006AE331853F8183C00AA1618EA070FD5AB
:1026E400204611499847013D0FD456F8043D07E0B0
:1026F40056F8042D0C492046904756F8043D013DF8
:10270400204609499847013DF2D5009EBFE7009B4A
:102714000025A3602846DFE7B1250008C82F00087C
:10272400D8300008E0300008DC300008E43000084D
:1027340038B5714605460E487446FEF72DFA3F201B
:1027440080F311880B4B1A78AA4208D8002080F332
:10275400118807482146BDE83840FEF789BA1D7044
:1027640000F0B6F90028F1D000F056F9EEE700BF0A
:10277400352700081C02002070B5714605460B4839
:102784007446FEF709FA3F2080F31188084B1E783F
:102794001A78AA4238BF1D70002080F311880348BC
:1027A4002146FEF765FA304670BD00BF7D2700085C
:1027B4001C02002070B50446714617487546FEF7A2
:1027C400EBF9A37863B13F2080F31188E278012A02
:1027D4000CD9E278501EC1B2E170002080F3118858
:1027E4000D482946BDE87040FEF742BA5E1E00203F
:1027F40080F31188094801688E4208D2084B06EB21
:10280400860603EB8600214600F032FAE8E7054825
:102814004B21FDF72DFEF1E7B927000874010020D4
:1028240038010020D42F0008F8B504460D46294885
:1028340071467646FEF7B0F93F2080F31188E77DB4
:10284400002F24D0AB781BB1E878411CCAB2EA70DF
:102854007B1ED9B2207EE175E368E560884288BFBB
:102864002176E3B1A27D207D511CCAB2A275A17D5F
:10287400884211D0A17D226942F82130002080F3E2
:10288400118814483146BDE8F840FEF7F1B9124802
:102894003B21FDF7EDFDD5E70020A075EAE7247F95
:1028A4000E480F4B015D0F485A18045D41185078CB
:1028B4004978204350701A780A431A700A4B1868F2
:1028C4000028DBD100F004F90028D7D000F0A4F8E8
:1028D400D4E700BF2D280008DC2F0008E42F0008EF
:1028E400240100206C300008300100202DE9F0475D
:1028F400064686B00C4634487146F146FEF74CF95C
:1029040096E8080423B1B36813B1304A924504D061
:102914002F484021FDF7ACFDB36830462146984767
:10292400042803D02A484321FDF7A2FDE846B768EE
:10293400284900973046B847B56855453FD06F469B
:10294400002400E0054647F8045F30462149A847C3
:10295400B06801345045F5D10099052CB16003DD10
:102964001B485821FDF784FDE30708EB84070FD5C6
:1029740030461949A847013C0FD457F8045D07E0D5
:1029840057F8045D14493046A84757F8045D013CE4
:1029940030461149A847013CF2D5DDF800A00F49A3
:1029A4003046D0470428C2D0C6F804A0C6F808A010
:1029B40005484946FEF75CF906B0BDE8F087B76004
:1029C4003D460024D0E700BFF1280008C52B0008CD
:1029D400B0300008D8300008DC300008E4300008CB
:1029E400F8B542F6E514C0F6000405460F46204645
:1029F40071467646FEF7D0F842F6C530054BAF6017
:102A0400C0F600006860314620462B60BDE8F840FF
:102A1400FEF72EB9BC3000082DE9F04F274C284DA5
:102A2400284FDFF8A89085B0024671462648CDF8B5
:102A340008E00192FEF7B0F894F800B001988DF820
:102A44000FB05FFA8BF82E4657F820B020700020A4
:102A540080F31188584600F067F98246DBF80000DD
:102A640051464368584698475046FFF7A3FE3F2017
:102A740080F31188297849B99DF80F2012480299EA
:102A8400227005B0BDE8F04FFEF7F2B83278B2FA22
:102A940082F0C0F11F03D9B272185078B0FA80F3F3
:102AA400C3F1200202EBC10101F0FF008045E3D233
:102AB40099F800309842C7D8DEE700BF34010020FF
:102AC40024010020980100201D2A00081C02002077
:102AD40038B5164871467546FEF75EF8144B1C78F7
:102AE400F4B11A78B2FA82F1C1F11F04E0B21B18F2
:102AF40010495A780B78B2FA82F4C4F1200202EB3E
:102B0400C00000F0FF049C420DD90B490B789C4295
:102B140098BF002405482946FEF7AAF8204638BD88
:102B240004480378F6E70024F4E700BFD52A000838
:102B340024010020340100201C0200202DE9F04172
:102B440004460E461B48714690467546FEF724F827
:102B5400E778A189A26807F07F0788B20AB1002844
:102B64001FD015483B21FDF783FC3F2080F31188DB
:102B7400A681E178A4F80E800B0609D4E2780F4B05
:102B840042F0800003EB0711E0708A6862608C6099
:102B9400002080F3118807482946BDE8F041FEF77C
:102BA40067B8002EDDD0012FDBD82388032BDCD8B7
:102BB400D7E700BF412B0008C4300008780100208B
:102BC40038B542F6C534C0F6000475467146204651
:102BD400FDF7E2FF20462946FEF74AF8032038BDF8
:102BE4002DE9F0411646044688460E48714675465E
:102BF4001F46FDF7D1FF032E01DD012F03D90A483B
:102C04003321FDF735FC00206060E081A081A070D5
:102C14000448C4F8088029462680E770BDE8F041DE
:102C2400FEF726B8E52B0008CC3000082DE9F0416A
:102C340042F63145C0F6000504460F469046284644
:102C440071467646FDF7A8FF5FFA88F2511C00230F
:102C5400C8B223606372A372E072E17A6760217381
:102C6400284631462272BDE8F041FEF701B800BFA4
:102C740070B504460D46164871467646FDF78CFF3E
:102C8400238AE28998B282421CD96168A94202D897
:102C9400A3689D4203D90F483B21FDF7E9FB3F2080
:102CA40080F3118822682A602560208A411C8BB237
:102CB4002382002080F3118805483146BDE8704026
:102CC400FDF7D6BF03483A21FDF7D2FBDDE700BF8D
:102CD400752C0008E830000870B5714604460F48AA
:102CE4000F4E7546FDF758FF202C0FD856F82430A8
:102CF40063B13F2080F311881C7E002080F311888B
:102D040006482946FDF7B4FF204670BD05486621F4
:102D1400FDF7AEFB56F82430EBE700BFDD2C0008CE
:102D240098010020F0300008F8B5714604462348A5
:102D34007546FDF731FF3F2080F31188E368002BCF
:102D440037D0E668E07D227D411CCBB29342E37527
:102D540014D8A07D236953F82010E160A07D00B948
:102D6400A275A27D531ED9B2A175002080F31188EB
:102D740012482946FDF77CFF3046F8BD571C002059
:102D8400BB42E06003D00E485221FDF771FB227F65
:102D94000C4C0D4BA05C0D4C1918A25C4F783A40BA
:102DA4004A70002AE1D12018197842780A401A7032
:102DB400DBE703483821FDF75BFBC2E72D2D000854
:102DC400F0300008E42F0008240100202830000817
:102DD40010B5034C14B1AFF3008010BD204610BDF4
:102DE4000000000008B5084B04461BB10021AFF3F6
:102DF400008001E000F00CF804480068816A01B129
:102E04008847204600F048F800000000FC30000825
:102E140070B5084B084CE01A841003EB84060025B7
:102E2400043D1CB172599047013CF9E7BDE870407C
:102E340000F06AB9283100082C31000838B50E4D6D
:102E44000E4BE81A85100024AC4205D00B4951F80A
:102E5400242090470134F7E700F050F90849094A63
:102E6400541AA5100024AC4205D0054B53F8240095
:102E740080470134F7E738BD2431000824310008C5
:102E8400243100082831000882180346934202D0F6
:102E940003F8011BFAE77047FEE700BF002100F0CA
:102EA40004B80C4B5B58435004310B480B4B42188D
:102EB4009A42FFF4F6AF0A4A00F003B8002342F83E
:102EC400043B084B9A42FFF4F9AFFDF72BFAFDF7E8
:102ED40007FC70472C31000800000020A8000020E7
:102EE400AC00002020020020FFF7FEBFEFF31080AB
:102EF40072B606498A68FF231B041A438A604A682B
:102F04001B029A434A6080F31088704718ED00E072
:102F140000B53F2080F31188FFF7DAFD002803D1C4
:102F240080F3118801BC004781B001231B06064AC7
:102F340006490EB484B001B40620C0430047002003
:102F440080F3118800DF00001D2A0008432F0008C9
:102F540009B001BC004700000D0A453A3078303012
:102F64003030303030300A0D000000000D0A583A7D
:102F7400307830303030303030300A0D000000000E
:102F8400F1280008B1250008A91E000861220008E4
:102F94002D280008716B000071665F706F6F6C0004
:102FA40071665F7469636B00716D705F696E6974DB
:102FB4000000000071615F6669666F0071665F61A1
:102FC400637400007168736D5F64697300000000CE
:102FD40071665F676300000071615F6C69666F0012
:102FE40000000000000000000001010101010101D6
:102FF40001020202020202020203030303030303A7
:103004000304040404040404040505050505050576
:103014000506060606060606060707070707070746
:1030240007000000FFFEFDFBF7EFDFBF7FFEFDFBA7
:10303400F7EFDFBF7FFEFDFBF7EFDFBF7FFEFDFB9A
:10304400F7EFDFBF7FFEFDFBF7EFDFBF7FFEFDFB8A
:10305400F7EFDFBF7FFEFDFBF7EFDFBF7FFEFDFB7A
:10306400F7EFDFBF7F0000000001020408102040DA
:10307400800102040810204080010204081020404E
:10308400800102040810204080010204081020403E
:10309400800102040810204080010204081020402E
:1030A4008001020408102040800000007168736DE4
:1030B4005F696E6900000000F1280008B12500086E
:1030C4007174655F61726D007174655F63746F72B2
:1030D40000000000000000000100000002000000E9
:1030E40003000000716D705F7075740071615F673B
:1030F40065745F004300000040000020F8B500BF85
:10310400F8BC08BC9E467047F8B500BFF8BC08BCC4
:043114009E4670471C
:0431180000000000B3
:08311C00BCD0FF7F01000000A0
:04312400A9010008F5
:043128008501000815
:10312C000000000000000000000000000102030489
:10313C000607080900A24A04C8000020000000008D
:10314C00010203040102030406070809020406082D
:10315C00020406080A0C0E1014181C2024282C300B
:10316C000000000000000000000000000000000053
:10317C000000000000000000000000000000000043
:10318C00F830000800000000000000000000000003
:10319C000000000000000000000000000000000023
:1031AC000000000000000000000000000000000013
:1031BC000000000000000000000000000000000003
:0831CC0000000000400000209B
:0431D40000000000F7
:0400000508002EA120
:00000001FF
