:020000040800F2
:1000000000A00020A9010008ED010008ED01000892
:10001000ED010008ED010008ED01000800000000FE
:10002000000000000000000000000000ED010008DA
:10003000ED01000800000000ED010008ED010008DE
:10004000ED010008ED010008ED010008ED010008D8
:10005000ED010008ED010008ED010008ED010008C8
:10006000ED010008ED010008ED010008ED010008B8
:10007000ED010008ED010008ED010008ED010008A8
:10008000ED010008ED010008ED010008ED01000898
:10009000ED010008ED010008ED010008ED01000888
:1000A000ED010008ED010008ED010008ED01000878
:1000B000ED010008ED010008ED010008ED01000868
:1000C000ED010008ED010008ED010008ED01000858
:1000D000ED010008ED010008ED010008ED01000848
:1000E000ED010008ED010008ED010008ED01000838
:1000F000ED010008ED010008ED010008ED01000828
:10010000000000000000000000000000ED010008F9
:10011000ED010008ED010008ED010008ED01000807
:10012000ED010008ED010008ED010008ED010008F7
:10013000ED010008ED0100080000000000000000D3
:10014000ED010008ED010008ED01000800000000CD
:10015000000000000000000000000000000000009F
:100160000000000000000000ED010008ED010008A3
:10017000ED01000800000000000000000000000089
:0801800000000000ED01000881
:100188000A20002109180138FCD1FEE7F001000817
:1001980000000020000000200000002000000020D7
:1001A800002103E00A4B5B584350043109480A4BCD
:1001B80042189A42F6D3094A02E0002342F8043B67
:1001C800074B9A42F9D3FFF7DBFFFFF7D9FF7047D8
:1001D800F0010008000000200000002000000020BE
:0801E80000000020FEE700000A
:04000005080001A945
:00000001FF
